{
  "contracts/Verifier.sol": {
    "Verifier": {
      "abi": [
        {
          "inputs": [],
          "name": "ProofInvalid",
          "type": "error"
        },
        {
          "inputs": [],
          "name": "PublicInputNotInField",
          "type": "error"
        },
        {
          "inputs": [
            {
              "internalType": "uint256[8]",
              "name": "proof",
              "type": "uint256[8]"
            }
          ],
          "name": "compressProof",
          "outputs": [
            {
              "internalType": "uint256[4]",
              "name": "compressed",
              "type": "uint256[4]"
            }
          ],
          "stateMutability": "view",
          "type": "function"
        },
        {
          "inputs": [
            {
              "internalType": "uint256[4]",
              "name": "compressedProof",
              "type": "uint256[4]"
            },
            {
              "internalType": "uint256[1]",
              "name": "input",
              "type": "uint256[1]"
            }
          ],
          "name": "verifyCompressedProof",
          "outputs": [],
          "stateMutability": "view",
          "type": "function"
        },
        {
          "inputs": [
            {
              "internalType": "uint256[8]",
              "name": "proof",
              "type": "uint256[8]"
            },
            {
              "internalType": "uint256[1]",
              "name": "input",
              "type": "uint256[1]"
            }
          ],
          "name": "verifyProof",
          "outputs": [],
          "stateMutability": "view",
          "type": "function"
        }
      ],
      "evm": {
        "bytecode": {
          "linkReferences": {},
          "object": "6080604052348015600f57600080fd5b5061214c8061001f6000396000f3fe608060405234801561001057600080fd5b50600436106100415760003560e01c80631b81f8291461004657806344f6369214610062578063ce6c832c14610092575b600080fd5b610060600480360381019061005b9190611eb3565b6100ae565b005b61007c60048036038101906100779190611ef5565b61034b565b6040516100899190611fd8565b60405180910390f35b6100ac60048036038101906100a79190612015565b6104ac565b005b6000806100ba83610a71565b9150915060006040516101008682377f08607ae4963f9bd9db1f09d7b515ceb2d9d64addb86b6ab4b53206d13383347d6101008201527f0f94bb975ffccda01211b2aae13a2b452431f057309831c872ba81bb7793b1136101208201527f143a2199db2763e3f434b016a4337947c10cd66968184fa5d21aaede554de30f6101408201527f0a1bf2d79d5ef74b2d896a72e40098670d0109ae8a85d1caada7ba1647758aef6101608201527f2f25ecd207e485a697d4a11a41714e69373775c61552496f630bf5c83c31812f6101808201527f2ab2bf2bc9c02c5c153bdc59437b23b62ff3e6a6038ed6191df774a1609fce176101a08201527f111cc1648b72aef2dbe818d202d67cb13640b34c67fe9419339c2558a9338a7b6101c08201527f2358c1ba5f851afe005d042166fec1488a2331a42b81bc55a5206923d423053e6101e08201527f2696565389284c9b0011870cf97ec64203c56e8384a64aaa0d382371274eb6546102008201527f0122958658ad782898f36357c93742318cbf6d70ee957e9d7b8ab71683524dfc61022082015283610240820152826102608201527f04ab225b008d229abec332c6e25492ff3d0a3c71619878351752f509a44e81736102808201527f0a911ace0c2806ba88062845f9e97efea54a998e03080d0b03c2b5488d14b0096102a08201527f0a25da61328070c7175783b2a099e957e9976b1d8fe369f8e39a69752dabdaab6102c08201527f1ee782c177384234f8f49593f9fa2c02669fc8cf4e9452b88810e1d5f487ad726102e08201526020816103008360085afa91508051821691505080610344576040517f7fcdd1f400000000000000000000000000000000000000000000000000000000815260040160405180910390fd5b5050505050565b610353611dfe565b61038d8260006008811061036a57610369612055565b5b60200201358360016008811061038357610382612055565b5b6020020135610bad565b816000600481106103a1576103a0612055565b5b602002018181525050610416826003600881106103c1576103c0612055565b5b6020020135836002600881106103da576103d9612055565b5b6020020135846005600881106103f3576103f2612055565b5b60200201358560046008811061040c5761040b612055565b5b6020020135610d61565b8260026004811061042a57610429612055565b5b602002018360016004811061044257610441612055565b5b602002018281525082815250505061048a8260066008811061046757610466612055565b5b6020020135836007600881106104805761047f612055565b5b6020020135610bad565b8160036004811061049e5761049d612055565b5b602002018181525050919050565b6104b4611e20565b6000806104d8856000600481106104ce576104cd612055565b5b6020020135611338565b9150915060008060008061051c896002600481106104f9576104f8612055565b5b60200201358a60016004811061051257610511612055565b5b6020020135611471565b93509350935093506000806105488b60036004811061053e5761053d612055565b5b6020020135611338565b915091506000806105588c610a71565b91509150898b60006018811061057157610570612055565b5b602002018181525050888b60016018811061058f5761058e612055565b5b602002018181525050868b6002601881106105ad576105ac612055565b5b602002018181525050878b6003601881106105cb576105ca612055565b5b602002018181525050848b6004601881106105e9576105e8612055565b5b602002018181525050858b60056018811061060757610606612055565b5b602002018181525050838b60066018811061062557610624612055565b5b602002018181525050828b60076018811061064357610642612055565b5b6020020181815250507f08607ae4963f9bd9db1f09d7b515ceb2d9d64addb86b6ab4b53206d13383347d8b60086018811061068157610680612055565b5b6020020181815250507f0f94bb975ffccda01211b2aae13a2b452431f057309831c872ba81bb7793b1138b6009601881106106bf576106be612055565b5b6020020181815250507f143a2199db2763e3f434b016a4337947c10cd66968184fa5d21aaede554de30f8b600a601881106106fd576106fc612055565b5b6020020181815250507f0a1bf2d79d5ef74b2d896a72e40098670d0109ae8a85d1caada7ba1647758aef8b600b6018811061073b5761073a612055565b5b6020020181815250507f2f25ecd207e485a697d4a11a41714e69373775c61552496f630bf5c83c31812f8b600c6018811061077957610778612055565b5b6020020181815250507f2ab2bf2bc9c02c5c153bdc59437b23b62ff3e6a6038ed6191df774a1609fce178b600d601881106107b7576107b6612055565b5b6020020181815250507f111cc1648b72aef2dbe818d202d67cb13640b34c67fe9419339c2558a9338a7b8b600e601881106107f5576107f4612055565b5b6020020181815250507f2358c1ba5f851afe005d042166fec1488a2331a42b81bc55a5206923d423053e8b600f6018811061083357610832612055565b5b6020020181815250507f2696565389284c9b0011870cf97ec64203c56e8384a64aaa0d382371274eb6548b60106018811061087157610870612055565b5b6020020181815250507f0122958658ad782898f36357c93742318cbf6d70ee957e9d7b8ab71683524dfc8b6011601881106108af576108ae612055565b5b602002018181525050818b6012601881106108cd576108cc612055565b5b602002018181525050808b6013601881106108eb576108ea612055565b5b6020020181815250507f04ab225b008d229abec332c6e25492ff3d0a3c71619878351752f509a44e81738b60146018811061092957610928612055565b5b6020020181815250507f0a911ace0c2806ba88062845f9e97efea54a998e03080d0b03c2b5488d14b0098b60156018811061096757610966612055565b5b6020020181815250507f0a25da61328070c7175783b2a099e957e9976b1d8fe369f8e39a69752dabdaab8b6016601881106109a5576109a4612055565b5b6020020181815250507f1ee782c177384234f8f49593f9fa2c02669fc8cf4e9452b88810e1d5f487ad728b6017601881106109e3576109e2612055565b5b60200201818152505060006109f6611e43565b6020816103008f60085afa9150811580610a295750600181600060018110610a2157610a20612055565b5b602002015114155b15610a60576040517f7fcdd1f400000000000000000000000000000000000000000000000000000000815260040160405180910390fd5b505050505050505050505050505050565b6000806000600190506040516040810160007f24542eed5990d7538bc5b8e2ab4f3fa8babf6d4afb89c46341a6eafe1b94089b83527f071e0e57f94dc6a6a948fd9e8da8568fe0e7cf3c8ac22d655e08556da7c05e5b60208401527f2c9ee6d0c29d4045770ef52168b782f3532967ddbed8bd8616949a3cea42882f82527f2c8b592d58f2d8b5e21b4b9424502f1256263079e7ec2974ed5d1a7494f713aa6020830152863590508060408301527f30644e72e131a029b85045b68181585d2833e84879b9709143e1f593f000000181108416935060408260608460075afa8416935060408360808560065afa84169350825195506020830151945050505080610ba7576040517fa54f8e2700000000000000000000000000000000000000000000000000000000815260040160405180910390fd5b50915091565b60007f30644e72e131a029b85045b68181585d97816a916871ca8d3c208c16d87cfd4783101580610bfe57507f30644e72e131a029b85045b68181585d97816a916871ca8d3c208c16d87cfd478210155b15610c35576040517f7fcdd1f400000000000000000000000000000000000000000000000000000000815260040160405180910390fd5b600083148015610c455750600082145b15610c535760009050610d5b565b6000610cf27f30644e72e131a029b85045b68181585d97816a916871ca8d3c208c16d87cfd4780610c8757610c86612084565b5b60037f30644e72e131a029b85045b68181585d97816a916871ca8d3c208c16d87cfd4780610cb857610cb7612084565b5b877f30644e72e131a029b85045b68181585d97816a916871ca8d3c208c16d87cfd4780610ce857610ce7612084565b5b898a090908611857565b9050808303610d0b576000600185901b17915050610d5b565b610d14816118f4565b8303610d295760018085901b17915050610d5b565b6040517f7fcdd1f400000000000000000000000000000000000000000000000000000000815260040160405180910390fd5b92915050565b6000807f30644e72e131a029b85045b68181585d97816a916871ca8d3c208c16d87cfd4786101580610db357507f30644e72e131a029b85045b68181585d97816a916871ca8d3c208c16d87cfd478510155b80610dde57507f30644e72e131a029b85045b68181585d97816a916871ca8d3c208c16d87cfd478410155b80610e0957507f30644e72e131a029b85045b68181585d97816a916871ca8d3c208c16d87cfd478310155b15610e40576040517f7fcdd1f400000000000000000000000000000000000000000000000000000000815260040160405180910390fd5b60008385878917171703610e5a576000809150915061132f565b60008060007f30644e72e131a029b85045b68181585d97816a916871ca8d3c208c16d87cfd4780610e8e57610e8d612084565b5b60037f30644e72e131a029b85045b68181585d97816a916871ca8d3c208c16d87cfd47610ebb91906120e2565b7f30644e72e131a029b85045b68181585d97816a916871ca8d3c208c16d87cfd4780610eea57610ee9612084565b5b8a8c0909905060007f30644e72e131a029b85045b68181585d97816a916871ca8d3c208c16d87cfd4780610f2157610f20612084565b5b8a7f30644e72e131a029b85045b68181585d97816a916871ca8d3c208c16d87cfd4780610f5157610f50612084565b5b8c8d0909905060007f30644e72e131a029b85045b68181585d97816a916871ca8d3c208c16d87cfd4780610f8857610f87612084565b5b8a7f30644e72e131a029b85045b68181585d97816a916871ca8d3c208c16d87cfd4780610fb857610fb7612084565b5b8c8d090990507f30644e72e131a029b85045b68181585d97816a916871ca8d3c208c16d87cfd4780610fed57610fec612084565b5b7f30644e72e131a029b85045b68181585d97816a916871ca8d3c208c16d87cfd478061101c5761101b612084565b5b7f30644e72e131a029b85045b68181585d97816a916871ca8d3c208c16d87cfd478061104b5761104a612084565b5b8c860984087f2b149d40ceb8aaae81be18991be06ac3b5b4c5e559dbefa33267e6dc24a138e50894506111307f30644e72e131a029b85045b68181585d97816a916871ca8d3c208c16d87cfd47806110a6576110a5612084565b5b7f30644e72e131a029b85045b68181585d97816a916871ca8d3c208c16d87cfd47806110d5576110d4612084565b5b7f30644e72e131a029b85045b68181585d97816a916871ca8d3c208c16d87cfd478061110457611103612084565b5b8e870984087f2fcd3ac2a640a154eb23960892a85a68f031ca0c8344b23a577dcf1052b9e775086118f4565b93505050506000806111d47f30644e72e131a029b85045b68181585d97816a916871ca8d3c208c16d87cfd478061116a57611169612084565b5b7f30644e72e131a029b85045b68181585d97816a916871ca8d3c208c16d87cfd478061119957611198612084565b5b8586097f30644e72e131a029b85045b68181585d97816a916871ca8d3c208c16d87cfd47806111cb576111ca612084565b5b87880908611857565b90506112617f30644e72e131a029b85045b68181585d97816a916871ca8d3c208c16d87cfd478061120857611207612084565b5b7f183227397098d014dc2822db40c0ac2ecbc0b548b438e5469e10460b6c3e7ea47f30644e72e131a029b85045b68181585d97816a916871ca8d3c208c16d87cfd478061125857611257612084565b5b84880809611960565b159150506112708383836119cb565b8093508194505050828714801561128657508186145b156112b05760008161129957600061129c565b60025b60ff1660028b901b1717945087935061132b565b6112b9836118f4565b871480156112ce57506112cb826118f4565b86145b156112f8576001816112e15760006112e4565b60025b60ff1660028b901b1717945087935061132a565b6040517f7fcdd1f400000000000000000000000000000000000000000000000000000000815260040160405180910390fd5b5b5050505b94509492505050565b6000806000830361134f576000809150915061146c565b60006001808516149050600184901c92507f30644e72e131a029b85045b68181585d97816a916871ca8d3c208c16d87cfd4783106113b9576040517f7fcdd1f400000000000000000000000000000000000000000000000000000000815260040160405180910390fd5b6114567f30644e72e131a029b85045b68181585d97816a916871ca8d3c208c16d87cfd47806113eb576113ea612084565b5b60037f30644e72e131a029b85045b68181585d97816a916871ca8d3c208c16d87cfd478061141c5761141b612084565b5b867f30644e72e131a029b85045b68181585d97816a916871ca8d3c208c16d87cfd478061144c5761144b612084565b5b8889090908611857565b9150801561146a57611467826118f4565b91505b505b915091565b6000806000806000861480156114875750600085145b1561149f57600080600080935093509350935061184e565b6000600180881614905060006002808916149050600288901c95508694507f30644e72e131a029b85045b68181585d97816a916871ca8d3c208c16d87cfd478610158061150c57507f30644e72e131a029b85045b68181585d97816a916871ca8d3c208c16d87cfd478510155b15611543576040517f7fcdd1f400000000000000000000000000000000000000000000000000000000815260040160405180910390fd5b60007f30644e72e131a029b85045b68181585d97816a916871ca8d3c208c16d87cfd478061157457611573612084565b5b60037f30644e72e131a029b85045b68181585d97816a916871ca8d3c208c16d87cfd476115a191906120e2565b7f30644e72e131a029b85045b68181585d97816a916871ca8d3c208c16d87cfd47806115d0576115cf612084565b5b888a0909905060007f30644e72e131a029b85045b68181585d97816a916871ca8d3c208c16d87cfd478061160757611606612084565b5b887f30644e72e131a029b85045b68181585d97816a916871ca8d3c208c16d87cfd478061163757611636612084565b5b8a8b0909905060007f30644e72e131a029b85045b68181585d97816a916871ca8d3c208c16d87cfd478061166e5761166d612084565b5b887f30644e72e131a029b85045b68181585d97816a916871ca8d3c208c16d87cfd478061169e5761169d612084565b5b8a8b090990507f30644e72e131a029b85045b68181585d97816a916871ca8d3c208c16d87cfd47806116d3576116d2612084565b5b7f30644e72e131a029b85045b68181585d97816a916871ca8d3c208c16d87cfd478061170257611701612084565b5b7f30644e72e131a029b85045b68181585d97816a916871ca8d3c208c16d87cfd478061173157611730612084565b5b8a860984087f2b149d40ceb8aaae81be18991be06ac3b5b4c5e559dbefa33267e6dc24a138e50896506118167f30644e72e131a029b85045b68181585d97816a916871ca8d3c208c16d87cfd478061178c5761178b612084565b5b7f30644e72e131a029b85045b68181585d97816a916871ca8d3c208c16d87cfd47806117bb576117ba612084565b5b7f30644e72e131a029b85045b68181585d97816a916871ca8d3c208c16d87cfd47806117ea576117e9612084565b5b8c870984087f2fcd3ac2a640a154eb23960892a85a68f031ca0c8344b23a577dcf1052b9e775086118f4565b95506118238787866119cb565b809750819850505084156118485761183a876118f4565b9650611845866118f4565b95505b50505050505b92959194509250565b6000611883827f0c19139cb84c680a6e14116da060561765e05aa45a1c72a34f082305b61f3f52611cc8565b9050817f30644e72e131a029b85045b68181585d97816a916871ca8d3c208c16d87cfd47806118b5576118b4612084565b5b828309146118ef576040517f7fcdd1f400000000000000000000000000000000000000000000000000000000815260040160405180910390fd5b919050565b60007f30644e72e131a029b85045b68181585d97816a916871ca8d3c208c16d87cfd4780838161192757611926612084565b5b067f30644e72e131a029b85045b68181585d97816a916871ca8d3c208c16d87cfd47038161195857611957612084565b5b069050919050565b60008061198d837f0c19139cb84c680a6e14116da060561765e05aa45a1c72a34f082305b61f3f52611cc8565b9050827f30644e72e131a029b85045b68181585d97816a916871ca8d3c208c16d87cfd47806119bf576119be612084565b5b82830914915050919050565b6000806000611a6c7f30644e72e131a029b85045b68181585d97816a916871ca8d3c208c16d87cfd4780611a0257611a01612084565b5b7f30644e72e131a029b85045b68181585d97816a916871ca8d3c208c16d87cfd4780611a3157611a30612084565b5b8788097f30644e72e131a029b85045b68181585d97816a916871ca8d3c208c16d87cfd4780611a6357611a62612084565b5b898a0908611857565b90508315611a8057611a7d816118f4565b90505b611b0b7f30644e72e131a029b85045b68181585d97816a916871ca8d3c208c16d87cfd4780611ab257611ab1612084565b5b7f183227397098d014dc2822db40c0ac2ecbc0b548b438e5469e10460b6c3e7ea47f30644e72e131a029b85045b68181585d97816a916871ca8d3c208c16d87cfd4780611b0257611b01612084565b5b848a0809611857565b92507f30644e72e131a029b85045b68181585d97816a916871ca8d3c208c16d87cfd4780611b3c57611b3b612084565b5b611b777f30644e72e131a029b85045b68181585d97816a916871ca8d3c208c16d87cfd4780611b6e57611b6d612084565b5b60028609611d60565b860991507f30644e72e131a029b85045b68181585d97816a916871ca8d3c208c16d87cfd4780611baa57611ba9612084565b5b611be47f30644e72e131a029b85045b68181585d97816a916871ca8d3c208c16d87cfd4780611bdc57611bdb612084565b5b8485096118f4565b7f30644e72e131a029b85045b68181585d97816a916871ca8d3c208c16d87cfd4780611c1357611c12612084565b5b8586090886141580611c8857507f30644e72e131a029b85045b68181585d97816a916871ca8d3c208c16d87cfd4780611c4f57611c4e612084565b5b7f30644e72e131a029b85045b68181585d97816a916871ca8d3c208c16d87cfd4780611c7e57611c7d612084565b5b8385096002098514155b15611cbf576040517f7fcdd1f400000000000000000000000000000000000000000000000000000000815260040160405180910390fd5b50935093915050565b60008060405160208152602080820152602060408201528460608201528360808201527f30644e72e131a029b85045b68181585d97816a916871ca8d3c208c16d87cfd4760a082015260208160c08360055afa9150805192505080611d59576040517f7fcdd1f400000000000000000000000000000000000000000000000000000000815260040160405180910390fd5b5092915050565b6000611d8c827f30644e72e131a029b85045b68181585d97816a916871ca8d3c208c16d87cfd45611cc8565b905060017f30644e72e131a029b85045b68181585d97816a916871ca8d3c208c16d87cfd4780611dbf57611dbe612084565b5b82840914611df9576040517f7fcdd1f400000000000000000000000000000000000000000000000000000000815260040160405180910390fd5b919050565b6040518060800160405280600490602082028036833780820191505090505090565b604051806103000160405280601890602082028036833780820191505090505090565b6040518060200160405280600190602082028036833780820191505090505090565b600080fd5b600080fd5b600081905082602060080282011115611e8b57611e8a611e6a565b5b92915050565b600081905082602060010282011115611ead57611eac611e6a565b5b92915050565b6000806101208385031215611ecb57611eca611e65565b5b6000611ed985828601611e6f565b925050610100611eeb85828601611e91565b9150509250929050565b60006101008284031215611f0c57611f0b611e65565b5b6000611f1a84828501611e6f565b91505092915050565b600060049050919050565b600081905092915050565b6000819050919050565b6000819050919050565b611f5681611f43565b82525050565b6000611f688383611f4d565b60208301905092915050565b6000602082019050919050565b611f8a81611f23565b611f948184611f2e565b9250611f9f82611f39565b8060005b83811015611fd0578151611fb78782611f5c565b9650611fc283611f74565b925050600181019050611fa3565b505050505050565b6000608082019050611fed6000830184611f81565b92915050565b60008190508260206004028201111561200f5761200e611e6a565b5b92915050565b60008060a0838503121561202c5761202b611e65565b5b600061203a85828601611ff3565b925050608061204b85828601611e91565b9150509250929050565b7f4e487b7100000000000000000000000000000000000000000000000000000000600052603260045260246000fd5b7f4e487b7100000000000000000000000000000000000000000000000000000000600052601260045260246000fd5b7f4e487b7100000000000000000000000000000000000000000000000000000000600052601160045260246000fd5b60006120ed82611f43565b91506120f883611f43565b92508282039050818111156121105761210f6120b3565b5b9291505056fea2646970667358221220235d7d2f8806d9f49f7969016dbe7676710a778281017b514ce0613d152207e864736f6c634300081c0033",
          "opcodes": "PUSH1 0x80 PUSH1 0x40 MSTORE CALLVALUE DUP1 ISZERO PUSH1 0xF JUMPI PUSH1 0x0 DUP1 REVERT JUMPDEST POP PUSH2 0x214C DUP1 PUSH2 0x1F PUSH1 0x0 CODECOPY PUSH1 0x0 RETURN INVALID PUSH1 0x80 PUSH1 0x40 MSTORE CALLVALUE DUP1 ISZERO PUSH2 0x10 JUMPI PUSH1 0x0 DUP1 REVERT JUMPDEST POP PUSH1 0x4 CALLDATASIZE LT PUSH2 0x41 JUMPI PUSH1 0x0 CALLDATALOAD PUSH1 0xE0 SHR DUP1 PUSH4 0x1B81F829 EQ PUSH2 0x46 JUMPI DUP1 PUSH4 0x44F63692 EQ PUSH2 0x62 JUMPI DUP1 PUSH4 0xCE6C832C EQ PUSH2 0x92 JUMPI JUMPDEST PUSH1 0x0 DUP1 REVERT JUMPDEST PUSH2 0x60 PUSH1 0x4 DUP1 CALLDATASIZE SUB DUP2 ADD SWAP1 PUSH2 0x5B SWAP2 SWAP1 PUSH2 0x1EB3 JUMP JUMPDEST PUSH2 0xAE JUMP JUMPDEST STOP JUMPDEST PUSH2 0x7C PUSH1 0x4 DUP1 CALLDATASIZE SUB DUP2 ADD SWAP1 PUSH2 0x77 SWAP2 SWAP1 PUSH2 0x1EF5 JUMP JUMPDEST PUSH2 0x34B JUMP JUMPDEST PUSH1 0x40 MLOAD PUSH2 0x89 SWAP2 SWAP1 PUSH2 0x1FD8 JUMP JUMPDEST PUSH1 0x40 MLOAD DUP1 SWAP2 SUB SWAP1 RETURN JUMPDEST PUSH2 0xAC PUSH1 0x4 DUP1 CALLDATASIZE SUB DUP2 ADD SWAP1 PUSH2 0xA7 SWAP2 SWAP1 PUSH2 0x2015 JUMP JUMPDEST PUSH2 0x4AC JUMP JUMPDEST STOP JUMPDEST PUSH1 0x0 DUP1 PUSH2 0xBA DUP4 PUSH2 0xA71 JUMP JUMPDEST SWAP2 POP SWAP2 POP PUSH1 0x0 PUSH1 0x40 MLOAD PUSH2 0x100 DUP7 DUP3 CALLDATACOPY PUSH32 0x8607AE4963F9BD9DB1F09D7B515CEB2D9D64ADDB86B6AB4B53206D13383347D PUSH2 0x100 DUP3 ADD MSTORE PUSH32 0xF94BB975FFCCDA01211B2AAE13A2B452431F057309831C872BA81BB7793B113 PUSH2 0x120 DUP3 ADD MSTORE PUSH32 0x143A2199DB2763E3F434B016A4337947C10CD66968184FA5D21AAEDE554DE30F PUSH2 0x140 DUP3 ADD MSTORE PUSH32 0xA1BF2D79D5EF74B2D896A72E40098670D0109AE8A85D1CAADA7BA1647758AEF PUSH2 0x160 DUP3 ADD MSTORE PUSH32 0x2F25ECD207E485A697D4A11A41714E69373775C61552496F630BF5C83C31812F PUSH2 0x180 DUP3 ADD MSTORE PUSH32 0x2AB2BF2BC9C02C5C153BDC59437B23B62FF3E6A6038ED6191DF774A1609FCE17 PUSH2 0x1A0 DUP3 ADD MSTORE PUSH32 0x111CC1648B72AEF2DBE818D202D67CB13640B34C67FE9419339C2558A9338A7B PUSH2 0x1C0 DUP3 ADD MSTORE PUSH32 0x2358C1BA5F851AFE005D042166FEC1488A2331A42B81BC55A5206923D423053E PUSH2 0x1E0 DUP3 ADD MSTORE PUSH32 0x2696565389284C9B0011870CF97EC64203C56E8384A64AAA0D382371274EB654 PUSH2 0x200 DUP3 ADD MSTORE PUSH32 0x122958658AD782898F36357C93742318CBF6D70EE957E9D7B8AB71683524DFC PUSH2 0x220 DUP3 ADD MSTORE DUP4 PUSH2 0x240 DUP3 ADD MSTORE DUP3 PUSH2 0x260 DUP3 ADD MSTORE PUSH32 0x4AB225B008D229ABEC332C6E25492FF3D0A3C71619878351752F509A44E8173 PUSH2 0x280 DUP3 ADD MSTORE PUSH32 0xA911ACE0C2806BA88062845F9E97EFEA54A998E03080D0B03C2B5488D14B009 PUSH2 0x2A0 DUP3 ADD MSTORE PUSH32 0xA25DA61328070C7175783B2A099E957E9976B1D8FE369F8E39A69752DABDAAB PUSH2 0x2C0 DUP3 ADD MSTORE PUSH32 0x1EE782C177384234F8F49593F9FA2C02669FC8CF4E9452B88810E1D5F487AD72 PUSH2 0x2E0 DUP3 ADD MSTORE PUSH1 0x20 DUP2 PUSH2 0x300 DUP4 PUSH1 0x8 GAS STATICCALL SWAP2 POP DUP1 MLOAD DUP3 AND SWAP2 POP POP DUP1 PUSH2 0x344 JUMPI PUSH1 0x40 MLOAD PUSH32 0x7FCDD1F400000000000000000000000000000000000000000000000000000000 DUP2 MSTORE PUSH1 0x4 ADD PUSH1 0x40 MLOAD DUP1 SWAP2 SUB SWAP1 REVERT JUMPDEST POP POP POP POP POP JUMP JUMPDEST PUSH2 0x353 PUSH2 0x1DFE JUMP JUMPDEST PUSH2 0x38D DUP3 PUSH1 0x0 PUSH1 0x8 DUP2 LT PUSH2 0x36A JUMPI PUSH2 0x369 PUSH2 0x2055 JUMP JUMPDEST JUMPDEST PUSH1 0x20 MUL ADD CALLDATALOAD DUP4 PUSH1 0x1 PUSH1 0x8 DUP2 LT PUSH2 0x383 JUMPI PUSH2 0x382 PUSH2 0x2055 JUMP JUMPDEST JUMPDEST PUSH1 0x20 MUL ADD CALLDATALOAD PUSH2 0xBAD JUMP JUMPDEST DUP2 PUSH1 0x0 PUSH1 0x4 DUP2 LT PUSH2 0x3A1 JUMPI PUSH2 0x3A0 PUSH2 0x2055 JUMP JUMPDEST JUMPDEST PUSH1 0x20 MUL ADD DUP2 DUP2 MSTORE POP POP PUSH2 0x416 DUP3 PUSH1 0x3 PUSH1 0x8 DUP2 LT PUSH2 0x3C1 JUMPI PUSH2 0x3C0 PUSH2 0x2055 JUMP JUMPDEST JUMPDEST PUSH1 0x20 MUL ADD CALLDATALOAD DUP4 PUSH1 0x2 PUSH1 0x8 DUP2 LT PUSH2 0x3DA JUMPI PUSH2 0x3D9 PUSH2 0x2055 JUMP JUMPDEST JUMPDEST PUSH1 0x20 MUL ADD CALLDATALOAD DUP5 PUSH1 0x5 PUSH1 0x8 DUP2 LT PUSH2 0x3F3 JUMPI PUSH2 0x3F2 PUSH2 0x2055 JUMP JUMPDEST JUMPDEST PUSH1 0x20 MUL ADD CALLDATALOAD DUP6 PUSH1 0x4 PUSH1 0x8 DUP2 LT PUSH2 0x40C JUMPI PUSH2 0x40B PUSH2 0x2055 JUMP JUMPDEST JUMPDEST PUSH1 0x20 MUL ADD CALLDATALOAD PUSH2 0xD61 JUMP JUMPDEST DUP3 PUSH1 0x2 PUSH1 0x4 DUP2 LT PUSH2 0x42A JUMPI PUSH2 0x429 PUSH2 0x2055 JUMP JUMPDEST JUMPDEST PUSH1 0x20 MUL ADD DUP4 PUSH1 0x1 PUSH1 0x4 DUP2 LT PUSH2 0x442 JUMPI PUSH2 0x441 PUSH2 0x2055 JUMP JUMPDEST JUMPDEST PUSH1 0x20 MUL ADD DUP3 DUP2 MSTORE POP DUP3 DUP2 MSTORE POP POP POP PUSH2 0x48A DUP3 PUSH1 0x6 PUSH1 0x8 DUP2 LT PUSH2 0x467 JUMPI PUSH2 0x466 PUSH2 0x2055 JUMP JUMPDEST JUMPDEST PUSH1 0x20 MUL ADD CALLDATALOAD DUP4 PUSH1 0x7 PUSH1 0x8 DUP2 LT PUSH2 0x480 JUMPI PUSH2 0x47F PUSH2 0x2055 JUMP JUMPDEST JUMPDEST PUSH1 0x20 MUL ADD CALLDATALOAD PUSH2 0xBAD JUMP JUMPDEST DUP2 PUSH1 0x3 PUSH1 0x4 DUP2 LT PUSH2 0x49E JUMPI PUSH2 0x49D PUSH2 0x2055 JUMP JUMPDEST JUMPDEST PUSH1 0x20 MUL ADD DUP2 DUP2 MSTORE POP POP SWAP2 SWAP1 POP JUMP JUMPDEST PUSH2 0x4B4 PUSH2 0x1E20 JUMP JUMPDEST PUSH1 0x0 DUP1 PUSH2 0x4D8 DUP6 PUSH1 0x0 PUSH1 0x4 DUP2 LT PUSH2 0x4CE JUMPI PUSH2 0x4CD PUSH2 0x2055 JUMP JUMPDEST JUMPDEST PUSH1 0x20 MUL ADD CALLDATALOAD PUSH2 0x1338 JUMP JUMPDEST SWAP2 POP SWAP2 POP PUSH1 0x0 DUP1 PUSH1 0x0 DUP1 PUSH2 0x51C DUP10 PUSH1 0x2 PUSH1 0x4 DUP2 LT PUSH2 0x4F9 JUMPI PUSH2 0x4F8 PUSH2 0x2055 JUMP JUMPDEST JUMPDEST PUSH1 0x20 MUL ADD CALLDATALOAD DUP11 PUSH1 0x1 PUSH1 0x4 DUP2 LT PUSH2 0x512 JUMPI PUSH2 0x511 PUSH2 0x2055 JUMP JUMPDEST JUMPDEST PUSH1 0x20 MUL ADD CALLDATALOAD PUSH2 0x1471 JUMP JUMPDEST SWAP4 POP SWAP4 POP SWAP4 POP SWAP4 POP PUSH1 0x0 DUP1 PUSH2 0x548 DUP12 PUSH1 0x3 PUSH1 0x4 DUP2 LT PUSH2 0x53E JUMPI PUSH2 0x53D PUSH2 0x2055 JUMP JUMPDEST JUMPDEST PUSH1 0x20 MUL ADD CALLDATALOAD PUSH2 0x1338 JUMP JUMPDEST SWAP2 POP SWAP2 POP PUSH1 0x0 DUP1 PUSH2 0x558 DUP13 PUSH2 0xA71 JUMP JUMPDEST SWAP2 POP SWAP2 POP DUP10 DUP12 PUSH1 0x0 PUSH1 0x18 DUP2 LT PUSH2 0x571 JUMPI PUSH2 0x570 PUSH2 0x2055 JUMP JUMPDEST JUMPDEST PUSH1 0x20 MUL ADD DUP2 DUP2 MSTORE POP POP DUP9 DUP12 PUSH1 0x1 PUSH1 0x18 DUP2 LT PUSH2 0x58F JUMPI PUSH2 0x58E PUSH2 0x2055 JUMP JUMPDEST JUMPDEST PUSH1 0x20 MUL ADD DUP2 DUP2 MSTORE POP POP DUP7 DUP12 PUSH1 0x2 PUSH1 0x18 DUP2 LT PUSH2 0x5AD JUMPI PUSH2 0x5AC PUSH2 0x2055 JUMP JUMPDEST JUMPDEST PUSH1 0x20 MUL ADD DUP2 DUP2 MSTORE POP POP DUP8 DUP12 PUSH1 0x3 PUSH1 0x18 DUP2 LT PUSH2 0x5CB JUMPI PUSH2 0x5CA PUSH2 0x2055 JUMP JUMPDEST JUMPDEST PUSH1 0x20 MUL ADD DUP2 DUP2 MSTORE POP POP DUP5 DUP12 PUSH1 0x4 PUSH1 0x18 DUP2 LT PUSH2 0x5E9 JUMPI PUSH2 0x5E8 PUSH2 0x2055 JUMP JUMPDEST JUMPDEST PUSH1 0x20 MUL ADD DUP2 DUP2 MSTORE POP POP DUP6 DUP12 PUSH1 0x5 PUSH1 0x18 DUP2 LT PUSH2 0x607 JUMPI PUSH2 0x606 PUSH2 0x2055 JUMP JUMPDEST JUMPDEST PUSH1 0x20 MUL ADD DUP2 DUP2 MSTORE POP POP DUP4 DUP12 PUSH1 0x6 PUSH1 0x18 DUP2 LT PUSH2 0x625 JUMPI PUSH2 0x624 PUSH2 0x2055 JUMP JUMPDEST JUMPDEST PUSH1 0x20 MUL ADD DUP2 DUP2 MSTORE POP POP DUP3 DUP12 PUSH1 0x7 PUSH1 0x18 DUP2 LT PUSH2 0x643 JUMPI PUSH2 0x642 PUSH2 0x2055 JUMP JUMPDEST JUMPDEST PUSH1 0x20 MUL ADD DUP2 DUP2 MSTORE POP POP PUSH32 0x8607AE4963F9BD9DB1F09D7B515CEB2D9D64ADDB86B6AB4B53206D13383347D DUP12 PUSH1 0x8 PUSH1 0x18 DUP2 LT PUSH2 0x681 JUMPI PUSH2 0x680 PUSH2 0x2055 JUMP JUMPDEST JUMPDEST PUSH1 0x20 MUL ADD DUP2 DUP2 MSTORE POP POP PUSH32 0xF94BB975FFCCDA01211B2AAE13A2B452431F057309831C872BA81BB7793B113 DUP12 PUSH1 0x9 PUSH1 0x18 DUP2 LT PUSH2 0x6BF JUMPI PUSH2 0x6BE PUSH2 0x2055 JUMP JUMPDEST JUMPDEST PUSH1 0x20 MUL ADD DUP2 DUP2 MSTORE POP POP PUSH32 0x143A2199DB2763E3F434B016A4337947C10CD66968184FA5D21AAEDE554DE30F DUP12 PUSH1 0xA PUSH1 0x18 DUP2 LT PUSH2 0x6FD JUMPI PUSH2 0x6FC PUSH2 0x2055 JUMP JUMPDEST JUMPDEST PUSH1 0x20 MUL ADD DUP2 DUP2 MSTORE POP POP PUSH32 0xA1BF2D79D5EF74B2D896A72E40098670D0109AE8A85D1CAADA7BA1647758AEF DUP12 PUSH1 0xB PUSH1 0x18 DUP2 LT PUSH2 0x73B JUMPI PUSH2 0x73A PUSH2 0x2055 JUMP JUMPDEST JUMPDEST PUSH1 0x20 MUL ADD DUP2 DUP2 MSTORE POP POP PUSH32 0x2F25ECD207E485A697D4A11A41714E69373775C61552496F630BF5C83C31812F DUP12 PUSH1 0xC PUSH1 0x18 DUP2 LT PUSH2 0x779 JUMPI PUSH2 0x778 PUSH2 0x2055 JUMP JUMPDEST JUMPDEST PUSH1 0x20 MUL ADD DUP2 DUP2 MSTORE POP POP PUSH32 0x2AB2BF2BC9C02C5C153BDC59437B23B62FF3E6A6038ED6191DF774A1609FCE17 DUP12 PUSH1 0xD PUSH1 0x18 DUP2 LT PUSH2 0x7B7 JUMPI PUSH2 0x7B6 PUSH2 0x2055 JUMP JUMPDEST JUMPDEST PUSH1 0x20 MUL ADD DUP2 DUP2 MSTORE POP POP PUSH32 0x111CC1648B72AEF2DBE818D202D67CB13640B34C67FE9419339C2558A9338A7B DUP12 PUSH1 0xE PUSH1 0x18 DUP2 LT PUSH2 0x7F5 JUMPI PUSH2 0x7F4 PUSH2 0x2055 JUMP JUMPDEST JUMPDEST PUSH1 0x20 MUL ADD DUP2 DUP2 MSTORE POP POP PUSH32 0x2358C1BA5F851AFE005D042166FEC1488A2331A42B81BC55A5206923D423053E DUP12 PUSH1 0xF PUSH1 0x18 DUP2 LT PUSH2 0x833 JUMPI PUSH2 0x832 PUSH2 0x2055 JUMP JUMPDEST JUMPDEST PUSH1 0x20 MUL ADD DUP2 DUP2 MSTORE POP POP PUSH32 0x2696565389284C9B0011870CF97EC64203C56E8384A64AAA0D382371274EB654 DUP12 PUSH1 0x10 PUSH1 0x18 DUP2 LT PUSH2 0x871 JUMPI PUSH2 0x870 PUSH2 0x2055 JUMP JUMPDEST JUMPDEST PUSH1 0x20 MUL ADD DUP2 DUP2 MSTORE POP POP PUSH32 0x122958658AD782898F36357C93742318CBF6D70EE957E9D7B8AB71683524DFC DUP12 PUSH1 0x11 PUSH1 0x18 DUP2 LT PUSH2 0x8AF JUMPI PUSH2 0x8AE PUSH2 0x2055 JUMP JUMPDEST JUMPDEST PUSH1 0x20 MUL ADD DUP2 DUP2 MSTORE POP POP DUP2 DUP12 PUSH1 0x12 PUSH1 0x18 DUP2 LT PUSH2 0x8CD JUMPI PUSH2 0x8CC PUSH2 0x2055 JUMP JUMPDEST JUMPDEST PUSH1 0x20 MUL ADD DUP2 DUP2 MSTORE POP POP DUP1 DUP12 PUSH1 0x13 PUSH1 0x18 DUP2 LT PUSH2 0x8EB JUMPI PUSH2 0x8EA PUSH2 0x2055 JUMP JUMPDEST JUMPDEST PUSH1 0x20 MUL ADD DUP2 DUP2 MSTORE POP POP PUSH32 0x4AB225B008D229ABEC332C6E25492FF3D0A3C71619878351752F509A44E8173 DUP12 PUSH1 0x14 PUSH1 0x18 DUP2 LT PUSH2 0x929 JUMPI PUSH2 0x928 PUSH2 0x2055 JUMP JUMPDEST JUMPDEST PUSH1 0x20 MUL ADD DUP2 DUP2 MSTORE POP POP PUSH32 0xA911ACE0C2806BA88062845F9E97EFEA54A998E03080D0B03C2B5488D14B009 DUP12 PUSH1 0x15 PUSH1 0x18 DUP2 LT PUSH2 0x967 JUMPI PUSH2 0x966 PUSH2 0x2055 JUMP JUMPDEST JUMPDEST PUSH1 0x20 MUL ADD DUP2 DUP2 MSTORE POP POP PUSH32 0xA25DA61328070C7175783B2A099E957E9976B1D8FE369F8E39A69752DABDAAB DUP12 PUSH1 0x16 PUSH1 0x18 DUP2 LT PUSH2 0x9A5 JUMPI PUSH2 0x9A4 PUSH2 0x2055 JUMP JUMPDEST JUMPDEST PUSH1 0x20 MUL ADD DUP2 DUP2 MSTORE POP POP PUSH32 0x1EE782C177384234F8F49593F9FA2C02669FC8CF4E9452B88810E1D5F487AD72 DUP12 PUSH1 0x17 PUSH1 0x18 DUP2 LT PUSH2 0x9E3 JUMPI PUSH2 0x9E2 PUSH2 0x2055 JUMP JUMPDEST JUMPDEST PUSH1 0x20 MUL ADD DUP2 DUP2 MSTORE POP POP PUSH1 0x0 PUSH2 0x9F6 PUSH2 0x1E43 JUMP JUMPDEST PUSH1 0x20 DUP2 PUSH2 0x300 DUP16 PUSH1 0x8 GAS STATICCALL SWAP2 POP DUP2 ISZERO DUP1 PUSH2 0xA29 JUMPI POP PUSH1 0x1 DUP2 PUSH1 0x0 PUSH1 0x1 DUP2 LT PUSH2 0xA21 JUMPI PUSH2 0xA20 PUSH2 0x2055 JUMP JUMPDEST JUMPDEST PUSH1 0x20 MUL ADD MLOAD EQ ISZERO JUMPDEST ISZERO PUSH2 0xA60 JUMPI PUSH1 0x40 MLOAD PUSH32 0x7FCDD1F400000000000000000000000000000000000000000000000000000000 DUP2 MSTORE PUSH1 0x4 ADD PUSH1 0x40 MLOAD DUP1 SWAP2 SUB SWAP1 REVERT JUMPDEST POP POP POP POP POP POP POP POP POP POP POP POP POP POP POP JUMP JUMPDEST PUSH1 0x0 DUP1 PUSH1 0x0 PUSH1 0x1 SWAP1 POP PUSH1 0x40 MLOAD PUSH1 0x40 DUP2 ADD PUSH1 0x0 PUSH32 0x24542EED5990D7538BC5B8E2AB4F3FA8BABF6D4AFB89C46341A6EAFE1B94089B DUP4 MSTORE PUSH32 0x71E0E57F94DC6A6A948FD9E8DA8568FE0E7CF3C8AC22D655E08556DA7C05E5B PUSH1 0x20 DUP5 ADD MSTORE PUSH32 0x2C9EE6D0C29D4045770EF52168B782F3532967DDBED8BD8616949A3CEA42882F DUP3 MSTORE PUSH32 0x2C8B592D58F2D8B5E21B4B9424502F1256263079E7EC2974ED5D1A7494F713AA PUSH1 0x20 DUP4 ADD MSTORE DUP7 CALLDATALOAD SWAP1 POP DUP1 PUSH1 0x40 DUP4 ADD MSTORE PUSH32 0x30644E72E131A029B85045B68181585D2833E84879B9709143E1F593F0000001 DUP2 LT DUP5 AND SWAP4 POP PUSH1 0x40 DUP3 PUSH1 0x60 DUP5 PUSH1 0x7 GAS STATICCALL DUP5 AND SWAP4 POP PUSH1 0x40 DUP4 PUSH1 0x80 DUP6 PUSH1 0x6 GAS STATICCALL DUP5 AND SWAP4 POP DUP3 MLOAD SWAP6 POP PUSH1 0x20 DUP4 ADD MLOAD SWAP5 POP POP POP POP DUP1 PUSH2 0xBA7 JUMPI PUSH1 0x40 MLOAD PUSH32 0xA54F8E2700000000000000000000000000000000000000000000000000000000 DUP2 MSTORE PUSH1 0x4 ADD PUSH1 0x40 MLOAD DUP1 SWAP2 SUB SWAP1 REVERT JUMPDEST POP SWAP2 POP SWAP2 JUMP JUMPDEST PUSH1 0x0 PUSH32 0x30644E72E131A029B85045B68181585D97816A916871CA8D3C208C16D87CFD47 DUP4 LT ISZERO DUP1 PUSH2 0xBFE JUMPI POP PUSH32 0x30644E72E131A029B85045B68181585D97816A916871CA8D3C208C16D87CFD47 DUP3 LT ISZERO JUMPDEST ISZERO PUSH2 0xC35 JUMPI PUSH1 0x40 MLOAD PUSH32 0x7FCDD1F400000000000000000000000000000000000000000000000000000000 DUP2 MSTORE PUSH1 0x4 ADD PUSH1 0x40 MLOAD DUP1 SWAP2 SUB SWAP1 REVERT JUMPDEST PUSH1 0x0 DUP4 EQ DUP1 ISZERO PUSH2 0xC45 JUMPI POP PUSH1 0x0 DUP3 EQ JUMPDEST ISZERO PUSH2 0xC53 JUMPI PUSH1 0x0 SWAP1 POP PUSH2 0xD5B JUMP JUMPDEST PUSH1 0x0 PUSH2 0xCF2 PUSH32 0x30644E72E131A029B85045B68181585D97816A916871CA8D3C208C16D87CFD47 DUP1 PUSH2 0xC87 JUMPI PUSH2 0xC86 PUSH2 0x2084 JUMP JUMPDEST JUMPDEST PUSH1 0x3 PUSH32 0x30644E72E131A029B85045B68181585D97816A916871CA8D3C208C16D87CFD47 DUP1 PUSH2 0xCB8 JUMPI PUSH2 0xCB7 PUSH2 0x2084 JUMP JUMPDEST JUMPDEST DUP8 PUSH32 0x30644E72E131A029B85045B68181585D97816A916871CA8D3C208C16D87CFD47 DUP1 PUSH2 0xCE8 JUMPI PUSH2 0xCE7 PUSH2 0x2084 JUMP JUMPDEST JUMPDEST DUP10 DUP11 MULMOD MULMOD ADDMOD PUSH2 0x1857 JUMP JUMPDEST SWAP1 POP DUP1 DUP4 SUB PUSH2 0xD0B JUMPI PUSH1 0x0 PUSH1 0x1 DUP6 SWAP1 SHL OR SWAP2 POP POP PUSH2 0xD5B JUMP JUMPDEST PUSH2 0xD14 DUP2 PUSH2 0x18F4 JUMP JUMPDEST DUP4 SUB PUSH2 0xD29 JUMPI PUSH1 0x1 DUP1 DUP6 SWAP1 SHL OR SWAP2 POP POP PUSH2 0xD5B JUMP JUMPDEST PUSH1 0x40 MLOAD PUSH32 0x7FCDD1F400000000000000000000000000000000000000000000000000000000 DUP2 MSTORE PUSH1 0x4 ADD PUSH1 0x40 MLOAD DUP1 SWAP2 SUB SWAP1 REVERT JUMPDEST SWAP3 SWAP2 POP POP JUMP JUMPDEST PUSH1 0x0 DUP1 PUSH32 0x30644E72E131A029B85045B68181585D97816A916871CA8D3C208C16D87CFD47 DUP7 LT ISZERO DUP1 PUSH2 0xDB3 JUMPI POP PUSH32 0x30644E72E131A029B85045B68181585D97816A916871CA8D3C208C16D87CFD47 DUP6 LT ISZERO JUMPDEST DUP1 PUSH2 0xDDE JUMPI POP PUSH32 0x30644E72E131A029B85045B68181585D97816A916871CA8D3C208C16D87CFD47 DUP5 LT ISZERO JUMPDEST DUP1 PUSH2 0xE09 JUMPI POP PUSH32 0x30644E72E131A029B85045B68181585D97816A916871CA8D3C208C16D87CFD47 DUP4 LT ISZERO JUMPDEST ISZERO PUSH2 0xE40 JUMPI PUSH1 0x40 MLOAD PUSH32 0x7FCDD1F400000000000000000000000000000000000000000000000000000000 DUP2 MSTORE PUSH1 0x4 ADD PUSH1 0x40 MLOAD DUP1 SWAP2 SUB SWAP1 REVERT JUMPDEST PUSH1 0x0 DUP4 DUP6 DUP8 DUP10 OR OR OR SUB PUSH2 0xE5A JUMPI PUSH1 0x0 DUP1 SWAP2 POP SWAP2 POP PUSH2 0x132F JUMP JUMPDEST PUSH1 0x0 DUP1 PUSH1 0x0 PUSH32 0x30644E72E131A029B85045B68181585D97816A916871CA8D3C208C16D87CFD47 DUP1 PUSH2 0xE8E JUMPI PUSH2 0xE8D PUSH2 0x2084 JUMP JUMPDEST JUMPDEST PUSH1 0x3 PUSH32 0x30644E72E131A029B85045B68181585D97816A916871CA8D3C208C16D87CFD47 PUSH2 0xEBB SWAP2 SWAP1 PUSH2 0x20E2 JUMP JUMPDEST PUSH32 0x30644E72E131A029B85045B68181585D97816A916871CA8D3C208C16D87CFD47 DUP1 PUSH2 0xEEA JUMPI PUSH2 0xEE9 PUSH2 0x2084 JUMP JUMPDEST JUMPDEST DUP11 DUP13 MULMOD MULMOD SWAP1 POP PUSH1 0x0 PUSH32 0x30644E72E131A029B85045B68181585D97816A916871CA8D3C208C16D87CFD47 DUP1 PUSH2 0xF21 JUMPI PUSH2 0xF20 PUSH2 0x2084 JUMP JUMPDEST JUMPDEST DUP11 PUSH32 0x30644E72E131A029B85045B68181585D97816A916871CA8D3C208C16D87CFD47 DUP1 PUSH2 0xF51 JUMPI PUSH2 0xF50 PUSH2 0x2084 JUMP JUMPDEST JUMPDEST DUP13 DUP14 MULMOD MULMOD SWAP1 POP PUSH1 0x0 PUSH32 0x30644E72E131A029B85045B68181585D97816A916871CA8D3C208C16D87CFD47 DUP1 PUSH2 0xF88 JUMPI PUSH2 0xF87 PUSH2 0x2084 JUMP JUMPDEST JUMPDEST DUP11 PUSH32 0x30644E72E131A029B85045B68181585D97816A916871CA8D3C208C16D87CFD47 DUP1 PUSH2 0xFB8 JUMPI PUSH2 0xFB7 PUSH2 0x2084 JUMP JUMPDEST JUMPDEST DUP13 DUP14 MULMOD MULMOD SWAP1 POP PUSH32 0x30644E72E131A029B85045B68181585D97816A916871CA8D3C208C16D87CFD47 DUP1 PUSH2 0xFED JUMPI PUSH2 0xFEC PUSH2 0x2084 JUMP JUMPDEST JUMPDEST PUSH32 0x30644E72E131A029B85045B68181585D97816A916871CA8D3C208C16D87CFD47 DUP1 PUSH2 0x101C JUMPI PUSH2 0x101B PUSH2 0x2084 JUMP JUMPDEST JUMPDEST PUSH32 0x30644E72E131A029B85045B68181585D97816A916871CA8D3C208C16D87CFD47 DUP1 PUSH2 0x104B JUMPI PUSH2 0x104A PUSH2 0x2084 JUMP JUMPDEST JUMPDEST DUP13 DUP7 MULMOD DUP5 ADDMOD PUSH32 0x2B149D40CEB8AAAE81BE18991BE06AC3B5B4C5E559DBEFA33267E6DC24A138E5 ADDMOD SWAP5 POP PUSH2 0x1130 PUSH32 0x30644E72E131A029B85045B68181585D97816A916871CA8D3C208C16D87CFD47 DUP1 PUSH2 0x10A6 JUMPI PUSH2 0x10A5 PUSH2 0x2084 JUMP JUMPDEST JUMPDEST PUSH32 0x30644E72E131A029B85045B68181585D97816A916871CA8D3C208C16D87CFD47 DUP1 PUSH2 0x10D5 JUMPI PUSH2 0x10D4 PUSH2 0x2084 JUMP JUMPDEST JUMPDEST PUSH32 0x30644E72E131A029B85045B68181585D97816A916871CA8D3C208C16D87CFD47 DUP1 PUSH2 0x1104 JUMPI PUSH2 0x1103 PUSH2 0x2084 JUMP JUMPDEST JUMPDEST DUP15 DUP8 MULMOD DUP5 ADDMOD PUSH32 0x2FCD3AC2A640A154EB23960892A85A68F031CA0C8344B23A577DCF1052B9E775 ADDMOD PUSH2 0x18F4 JUMP JUMPDEST SWAP4 POP POP POP POP PUSH1 0x0 DUP1 PUSH2 0x11D4 PUSH32 0x30644E72E131A029B85045B68181585D97816A916871CA8D3C208C16D87CFD47 DUP1 PUSH2 0x116A JUMPI PUSH2 0x1169 PUSH2 0x2084 JUMP JUMPDEST JUMPDEST PUSH32 0x30644E72E131A029B85045B68181585D97816A916871CA8D3C208C16D87CFD47 DUP1 PUSH2 0x1199 JUMPI PUSH2 0x1198 PUSH2 0x2084 JUMP JUMPDEST JUMPDEST DUP6 DUP7 MULMOD PUSH32 0x30644E72E131A029B85045B68181585D97816A916871CA8D3C208C16D87CFD47 DUP1 PUSH2 0x11CB JUMPI PUSH2 0x11CA PUSH2 0x2084 JUMP JUMPDEST JUMPDEST DUP8 DUP9 MULMOD ADDMOD PUSH2 0x1857 JUMP JUMPDEST SWAP1 POP PUSH2 0x1261 PUSH32 0x30644E72E131A029B85045B68181585D97816A916871CA8D3C208C16D87CFD47 DUP1 PUSH2 0x1208 JUMPI PUSH2 0x1207 PUSH2 0x2084 JUMP JUMPDEST JUMPDEST PUSH32 0x183227397098D014DC2822DB40C0AC2ECBC0B548B438E5469E10460B6C3E7EA4 PUSH32 0x30644E72E131A029B85045B68181585D97816A916871CA8D3C208C16D87CFD47 DUP1 PUSH2 0x1258 JUMPI PUSH2 0x1257 PUSH2 0x2084 JUMP JUMPDEST JUMPDEST DUP5 DUP9 ADDMOD MULMOD PUSH2 0x1960 JUMP JUMPDEST ISZERO SWAP2 POP POP PUSH2 0x1270 DUP4 DUP4 DUP4 PUSH2 0x19CB JUMP JUMPDEST DUP1 SWAP4 POP DUP2 SWAP5 POP POP POP DUP3 DUP8 EQ DUP1 ISZERO PUSH2 0x1286 JUMPI POP DUP2 DUP7 EQ JUMPDEST ISZERO PUSH2 0x12B0 JUMPI PUSH1 0x0 DUP2 PUSH2 0x1299 JUMPI PUSH1 0x0 PUSH2 0x129C JUMP JUMPDEST PUSH1 0x2 JUMPDEST PUSH1 0xFF AND PUSH1 0x2 DUP12 SWAP1 SHL OR OR SWAP5 POP DUP8 SWAP4 POP PUSH2 0x132B JUMP JUMPDEST PUSH2 0x12B9 DUP4 PUSH2 0x18F4 JUMP JUMPDEST DUP8 EQ DUP1 ISZERO PUSH2 0x12CE JUMPI POP PUSH2 0x12CB DUP3 PUSH2 0x18F4 JUMP JUMPDEST DUP7 EQ JUMPDEST ISZERO PUSH2 0x12F8 JUMPI PUSH1 0x1 DUP2 PUSH2 0x12E1 JUMPI PUSH1 0x0 PUSH2 0x12E4 JUMP JUMPDEST PUSH1 0x2 JUMPDEST PUSH1 0xFF AND PUSH1 0x2 DUP12 SWAP1 SHL OR OR SWAP5 POP DUP8 SWAP4 POP PUSH2 0x132A JUMP JUMPDEST PUSH1 0x40 MLOAD PUSH32 0x7FCDD1F400000000000000000000000000000000000000000000000000000000 DUP2 MSTORE PUSH1 0x4 ADD PUSH1 0x40 MLOAD DUP1 SWAP2 SUB SWAP1 REVERT JUMPDEST JUMPDEST POP POP POP JUMPDEST SWAP5 POP SWAP5 SWAP3 POP POP POP JUMP JUMPDEST PUSH1 0x0 DUP1 PUSH1 0x0 DUP4 SUB PUSH2 0x134F JUMPI PUSH1 0x0 DUP1 SWAP2 POP SWAP2 POP PUSH2 0x146C JUMP JUMPDEST PUSH1 0x0 PUSH1 0x1 DUP1 DUP6 AND EQ SWAP1 POP PUSH1 0x1 DUP5 SWAP1 SHR SWAP3 POP PUSH32 0x30644E72E131A029B85045B68181585D97816A916871CA8D3C208C16D87CFD47 DUP4 LT PUSH2 0x13B9 JUMPI PUSH1 0x40 MLOAD PUSH32 0x7FCDD1F400000000000000000000000000000000000000000000000000000000 DUP2 MSTORE PUSH1 0x4 ADD PUSH1 0x40 MLOAD DUP1 SWAP2 SUB SWAP1 REVERT JUMPDEST PUSH2 0x1456 PUSH32 0x30644E72E131A029B85045B68181585D97816A916871CA8D3C208C16D87CFD47 DUP1 PUSH2 0x13EB JUMPI PUSH2 0x13EA PUSH2 0x2084 JUMP JUMPDEST JUMPDEST PUSH1 0x3 PUSH32 0x30644E72E131A029B85045B68181585D97816A916871CA8D3C208C16D87CFD47 DUP1 PUSH2 0x141C JUMPI PUSH2 0x141B PUSH2 0x2084 JUMP JUMPDEST JUMPDEST DUP7 PUSH32 0x30644E72E131A029B85045B68181585D97816A916871CA8D3C208C16D87CFD47 DUP1 PUSH2 0x144C JUMPI PUSH2 0x144B PUSH2 0x2084 JUMP JUMPDEST JUMPDEST DUP9 DUP10 MULMOD MULMOD ADDMOD PUSH2 0x1857 JUMP JUMPDEST SWAP2 POP DUP1 ISZERO PUSH2 0x146A JUMPI PUSH2 0x1467 DUP3 PUSH2 0x18F4 JUMP JUMPDEST SWAP2 POP JUMPDEST POP JUMPDEST SWAP2 POP SWAP2 JUMP JUMPDEST PUSH1 0x0 DUP1 PUSH1 0x0 DUP1 PUSH1 0x0 DUP7 EQ DUP1 ISZERO PUSH2 0x1487 JUMPI POP PUSH1 0x0 DUP6 EQ JUMPDEST ISZERO PUSH2 0x149F JUMPI PUSH1 0x0 DUP1 PUSH1 0x0 DUP1 SWAP4 POP SWAP4 POP SWAP4 POP SWAP4 POP PUSH2 0x184E JUMP JUMPDEST PUSH1 0x0 PUSH1 0x1 DUP1 DUP9 AND EQ SWAP1 POP PUSH1 0x0 PUSH1 0x2 DUP1 DUP10 AND EQ SWAP1 POP PUSH1 0x2 DUP9 SWAP1 SHR SWAP6 POP DUP7 SWAP5 POP PUSH32 0x30644E72E131A029B85045B68181585D97816A916871CA8D3C208C16D87CFD47 DUP7 LT ISZERO DUP1 PUSH2 0x150C JUMPI POP PUSH32 0x30644E72E131A029B85045B68181585D97816A916871CA8D3C208C16D87CFD47 DUP6 LT ISZERO JUMPDEST ISZERO PUSH2 0x1543 JUMPI PUSH1 0x40 MLOAD PUSH32 0x7FCDD1F400000000000000000000000000000000000000000000000000000000 DUP2 MSTORE PUSH1 0x4 ADD PUSH1 0x40 MLOAD DUP1 SWAP2 SUB SWAP1 REVERT JUMPDEST PUSH1 0x0 PUSH32 0x30644E72E131A029B85045B68181585D97816A916871CA8D3C208C16D87CFD47 DUP1 PUSH2 0x1574 JUMPI PUSH2 0x1573 PUSH2 0x2084 JUMP JUMPDEST JUMPDEST PUSH1 0x3 PUSH32 0x30644E72E131A029B85045B68181585D97816A916871CA8D3C208C16D87CFD47 PUSH2 0x15A1 SWAP2 SWAP1 PUSH2 0x20E2 JUMP JUMPDEST PUSH32 0x30644E72E131A029B85045B68181585D97816A916871CA8D3C208C16D87CFD47 DUP1 PUSH2 0x15D0 JUMPI PUSH2 0x15CF PUSH2 0x2084 JUMP JUMPDEST JUMPDEST DUP9 DUP11 MULMOD MULMOD SWAP1 POP PUSH1 0x0 PUSH32 0x30644E72E131A029B85045B68181585D97816A916871CA8D3C208C16D87CFD47 DUP1 PUSH2 0x1607 JUMPI PUSH2 0x1606 PUSH2 0x2084 JUMP JUMPDEST JUMPDEST DUP9 PUSH32 0x30644E72E131A029B85045B68181585D97816A916871CA8D3C208C16D87CFD47 DUP1 PUSH2 0x1637 JUMPI PUSH2 0x1636 PUSH2 0x2084 JUMP JUMPDEST JUMPDEST DUP11 DUP12 MULMOD MULMOD SWAP1 POP PUSH1 0x0 PUSH32 0x30644E72E131A029B85045B68181585D97816A916871CA8D3C208C16D87CFD47 DUP1 PUSH2 0x166E JUMPI PUSH2 0x166D PUSH2 0x2084 JUMP JUMPDEST JUMPDEST DUP9 PUSH32 0x30644E72E131A029B85045B68181585D97816A916871CA8D3C208C16D87CFD47 DUP1 PUSH2 0x169E JUMPI PUSH2 0x169D PUSH2 0x2084 JUMP JUMPDEST JUMPDEST DUP11 DUP12 MULMOD MULMOD SWAP1 POP PUSH32 0x30644E72E131A029B85045B68181585D97816A916871CA8D3C208C16D87CFD47 DUP1 PUSH2 0x16D3 JUMPI PUSH2 0x16D2 PUSH2 0x2084 JUMP JUMPDEST JUMPDEST PUSH32 0x30644E72E131A029B85045B68181585D97816A916871CA8D3C208C16D87CFD47 DUP1 PUSH2 0x1702 JUMPI PUSH2 0x1701 PUSH2 0x2084 JUMP JUMPDEST JUMPDEST PUSH32 0x30644E72E131A029B85045B68181585D97816A916871CA8D3C208C16D87CFD47 DUP1 PUSH2 0x1731 JUMPI PUSH2 0x1730 PUSH2 0x2084 JUMP JUMPDEST JUMPDEST DUP11 DUP7 MULMOD DUP5 ADDMOD PUSH32 0x2B149D40CEB8AAAE81BE18991BE06AC3B5B4C5E559DBEFA33267E6DC24A138E5 ADDMOD SWAP7 POP PUSH2 0x1816 PUSH32 0x30644E72E131A029B85045B68181585D97816A916871CA8D3C208C16D87CFD47 DUP1 PUSH2 0x178C JUMPI PUSH2 0x178B PUSH2 0x2084 JUMP JUMPDEST JUMPDEST PUSH32 0x30644E72E131A029B85045B68181585D97816A916871CA8D3C208C16D87CFD47 DUP1 PUSH2 0x17BB JUMPI PUSH2 0x17BA PUSH2 0x2084 JUMP JUMPDEST JUMPDEST PUSH32 0x30644E72E131A029B85045B68181585D97816A916871CA8D3C208C16D87CFD47 DUP1 PUSH2 0x17EA JUMPI PUSH2 0x17E9 PUSH2 0x2084 JUMP JUMPDEST JUMPDEST DUP13 DUP8 MULMOD DUP5 ADDMOD PUSH32 0x2FCD3AC2A640A154EB23960892A85A68F031CA0C8344B23A577DCF1052B9E775 ADDMOD PUSH2 0x18F4 JUMP JUMPDEST SWAP6 POP PUSH2 0x1823 DUP8 DUP8 DUP7 PUSH2 0x19CB JUMP JUMPDEST DUP1 SWAP8 POP DUP2 SWAP9 POP POP POP DUP5 ISZERO PUSH2 0x1848 JUMPI PUSH2 0x183A DUP8 PUSH2 0x18F4 JUMP JUMPDEST SWAP7 POP PUSH2 0x1845 DUP7 PUSH2 0x18F4 JUMP JUMPDEST SWAP6 POP JUMPDEST POP POP POP POP POP JUMPDEST SWAP3 SWAP6 SWAP2 SWAP5 POP SWAP3 POP JUMP JUMPDEST PUSH1 0x0 PUSH2 0x1883 DUP3 PUSH32 0xC19139CB84C680A6E14116DA060561765E05AA45A1C72A34F082305B61F3F52 PUSH2 0x1CC8 JUMP JUMPDEST SWAP1 POP DUP2 PUSH32 0x30644E72E131A029B85045B68181585D97816A916871CA8D3C208C16D87CFD47 DUP1 PUSH2 0x18B5 JUMPI PUSH2 0x18B4 PUSH2 0x2084 JUMP JUMPDEST JUMPDEST DUP3 DUP4 MULMOD EQ PUSH2 0x18EF JUMPI PUSH1 0x40 MLOAD PUSH32 0x7FCDD1F400000000000000000000000000000000000000000000000000000000 DUP2 MSTORE PUSH1 0x4 ADD PUSH1 0x40 MLOAD DUP1 SWAP2 SUB SWAP1 REVERT JUMPDEST SWAP2 SWAP1 POP JUMP JUMPDEST PUSH1 0x0 PUSH32 0x30644E72E131A029B85045B68181585D97816A916871CA8D3C208C16D87CFD47 DUP1 DUP4 DUP2 PUSH2 0x1927 JUMPI PUSH2 0x1926 PUSH2 0x2084 JUMP JUMPDEST JUMPDEST MOD PUSH32 0x30644E72E131A029B85045B68181585D97816A916871CA8D3C208C16D87CFD47 SUB DUP2 PUSH2 0x1958 JUMPI PUSH2 0x1957 PUSH2 0x2084 JUMP JUMPDEST JUMPDEST MOD SWAP1 POP SWAP2 SWAP1 POP JUMP JUMPDEST PUSH1 0x0 DUP1 PUSH2 0x198D DUP4 PUSH32 0xC19139CB84C680A6E14116DA060561765E05AA45A1C72A34F082305B61F3F52 PUSH2 0x1CC8 JUMP JUMPDEST SWAP1 POP DUP3 PUSH32 0x30644E72E131A029B85045B68181585D97816A916871CA8D3C208C16D87CFD47 DUP1 PUSH2 0x19BF JUMPI PUSH2 0x19BE PUSH2 0x2084 JUMP JUMPDEST JUMPDEST DUP3 DUP4 MULMOD EQ SWAP2 POP POP SWAP2 SWAP1 POP JUMP JUMPDEST PUSH1 0x0 DUP1 PUSH1 0x0 PUSH2 0x1A6C PUSH32 0x30644E72E131A029B85045B68181585D97816A916871CA8D3C208C16D87CFD47 DUP1 PUSH2 0x1A02 JUMPI PUSH2 0x1A01 PUSH2 0x2084 JUMP JUMPDEST JUMPDEST PUSH32 0x30644E72E131A029B85045B68181585D97816A916871CA8D3C208C16D87CFD47 DUP1 PUSH2 0x1A31 JUMPI PUSH2 0x1A30 PUSH2 0x2084 JUMP JUMPDEST JUMPDEST DUP8 DUP9 MULMOD PUSH32 0x30644E72E131A029B85045B68181585D97816A916871CA8D3C208C16D87CFD47 DUP1 PUSH2 0x1A63 JUMPI PUSH2 0x1A62 PUSH2 0x2084 JUMP JUMPDEST JUMPDEST DUP10 DUP11 MULMOD ADDMOD PUSH2 0x1857 JUMP JUMPDEST SWAP1 POP DUP4 ISZERO PUSH2 0x1A80 JUMPI PUSH2 0x1A7D DUP2 PUSH2 0x18F4 JUMP JUMPDEST SWAP1 POP JUMPDEST PUSH2 0x1B0B PUSH32 0x30644E72E131A029B85045B68181585D97816A916871CA8D3C208C16D87CFD47 DUP1 PUSH2 0x1AB2 JUMPI PUSH2 0x1AB1 PUSH2 0x2084 JUMP JUMPDEST JUMPDEST PUSH32 0x183227397098D014DC2822DB40C0AC2ECBC0B548B438E5469E10460B6C3E7EA4 PUSH32 0x30644E72E131A029B85045B68181585D97816A916871CA8D3C208C16D87CFD47 DUP1 PUSH2 0x1B02 JUMPI PUSH2 0x1B01 PUSH2 0x2084 JUMP JUMPDEST JUMPDEST DUP5 DUP11 ADDMOD MULMOD PUSH2 0x1857 JUMP JUMPDEST SWAP3 POP PUSH32 0x30644E72E131A029B85045B68181585D97816A916871CA8D3C208C16D87CFD47 DUP1 PUSH2 0x1B3C JUMPI PUSH2 0x1B3B PUSH2 0x2084 JUMP JUMPDEST JUMPDEST PUSH2 0x1B77 PUSH32 0x30644E72E131A029B85045B68181585D97816A916871CA8D3C208C16D87CFD47 DUP1 PUSH2 0x1B6E JUMPI PUSH2 0x1B6D PUSH2 0x2084 JUMP JUMPDEST JUMPDEST PUSH1 0x2 DUP7 MULMOD PUSH2 0x1D60 JUMP JUMPDEST DUP7 MULMOD SWAP2 POP PUSH32 0x30644E72E131A029B85045B68181585D97816A916871CA8D3C208C16D87CFD47 DUP1 PUSH2 0x1BAA JUMPI PUSH2 0x1BA9 PUSH2 0x2084 JUMP JUMPDEST JUMPDEST PUSH2 0x1BE4 PUSH32 0x30644E72E131A029B85045B68181585D97816A916871CA8D3C208C16D87CFD47 DUP1 PUSH2 0x1BDC JUMPI PUSH2 0x1BDB PUSH2 0x2084 JUMP JUMPDEST JUMPDEST DUP5 DUP6 MULMOD PUSH2 0x18F4 JUMP JUMPDEST PUSH32 0x30644E72E131A029B85045B68181585D97816A916871CA8D3C208C16D87CFD47 DUP1 PUSH2 0x1C13 JUMPI PUSH2 0x1C12 PUSH2 0x2084 JUMP JUMPDEST JUMPDEST DUP6 DUP7 MULMOD ADDMOD DUP7 EQ ISZERO DUP1 PUSH2 0x1C88 JUMPI POP PUSH32 0x30644E72E131A029B85045B68181585D97816A916871CA8D3C208C16D87CFD47 DUP1 PUSH2 0x1C4F JUMPI PUSH2 0x1C4E PUSH2 0x2084 JUMP JUMPDEST JUMPDEST PUSH32 0x30644E72E131A029B85045B68181585D97816A916871CA8D3C208C16D87CFD47 DUP1 PUSH2 0x1C7E JUMPI PUSH2 0x1C7D PUSH2 0x2084 JUMP JUMPDEST JUMPDEST DUP4 DUP6 MULMOD PUSH1 0x2 MULMOD DUP6 EQ ISZERO JUMPDEST ISZERO PUSH2 0x1CBF JUMPI PUSH1 0x40 MLOAD PUSH32 0x7FCDD1F400000000000000000000000000000000000000000000000000000000 DUP2 MSTORE PUSH1 0x4 ADD PUSH1 0x40 MLOAD DUP1 SWAP2 SUB SWAP1 REVERT JUMPDEST POP SWAP4 POP SWAP4 SWAP2 POP POP JUMP JUMPDEST PUSH1 0x0 DUP1 PUSH1 0x40 MLOAD PUSH1 0x20 DUP2 MSTORE PUSH1 0x20 DUP1 DUP3 ADD MSTORE PUSH1 0x20 PUSH1 0x40 DUP3 ADD MSTORE DUP5 PUSH1 0x60 DUP3 ADD MSTORE DUP4 PUSH1 0x80 DUP3 ADD MSTORE PUSH32 0x30644E72E131A029B85045B68181585D97816A916871CA8D3C208C16D87CFD47 PUSH1 0xA0 DUP3 ADD MSTORE PUSH1 0x20 DUP2 PUSH1 0xC0 DUP4 PUSH1 0x5 GAS STATICCALL SWAP2 POP DUP1 MLOAD SWAP3 POP POP DUP1 PUSH2 0x1D59 JUMPI PUSH1 0x40 MLOAD PUSH32 0x7FCDD1F400000000000000000000000000000000000000000000000000000000 DUP2 MSTORE PUSH1 0x4 ADD PUSH1 0x40 MLOAD DUP1 SWAP2 SUB SWAP1 REVERT JUMPDEST POP SWAP3 SWAP2 POP POP JUMP JUMPDEST PUSH1 0x0 PUSH2 0x1D8C DUP3 PUSH32 0x30644E72E131A029B85045B68181585D97816A916871CA8D3C208C16D87CFD45 PUSH2 0x1CC8 JUMP JUMPDEST SWAP1 POP PUSH1 0x1 PUSH32 0x30644E72E131A029B85045B68181585D97816A916871CA8D3C208C16D87CFD47 DUP1 PUSH2 0x1DBF JUMPI PUSH2 0x1DBE PUSH2 0x2084 JUMP JUMPDEST JUMPDEST DUP3 DUP5 MULMOD EQ PUSH2 0x1DF9 JUMPI PUSH1 0x40 MLOAD PUSH32 0x7FCDD1F400000000000000000000000000000000000000000000000000000000 DUP2 MSTORE PUSH1 0x4 ADD PUSH1 0x40 MLOAD DUP1 SWAP2 SUB SWAP1 REVERT JUMPDEST SWAP2 SWAP1 POP JUMP JUMPDEST PUSH1 0x40 MLOAD DUP1 PUSH1 0x80 ADD PUSH1 0x40 MSTORE DUP1 PUSH1 0x4 SWAP1 PUSH1 0x20 DUP3 MUL DUP1 CALLDATASIZE DUP4 CALLDATACOPY DUP1 DUP3 ADD SWAP2 POP POP SWAP1 POP POP SWAP1 JUMP JUMPDEST PUSH1 0x40 MLOAD DUP1 PUSH2 0x300 ADD PUSH1 0x40 MSTORE DUP1 PUSH1 0x18 SWAP1 PUSH1 0x20 DUP3 MUL DUP1 CALLDATASIZE DUP4 CALLDATACOPY DUP1 DUP3 ADD SWAP2 POP POP SWAP1 POP POP SWAP1 JUMP JUMPDEST PUSH1 0x40 MLOAD DUP1 PUSH1 0x20 ADD PUSH1 0x40 MSTORE DUP1 PUSH1 0x1 SWAP1 PUSH1 0x20 DUP3 MUL DUP1 CALLDATASIZE DUP4 CALLDATACOPY DUP1 DUP3 ADD SWAP2 POP POP SWAP1 POP POP SWAP1 JUMP JUMPDEST PUSH1 0x0 DUP1 REVERT JUMPDEST PUSH1 0x0 DUP1 REVERT JUMPDEST PUSH1 0x0 DUP2 SWAP1 POP DUP3 PUSH1 0x20 PUSH1 0x8 MUL DUP3 ADD GT ISZERO PUSH2 0x1E8B JUMPI PUSH2 0x1E8A PUSH2 0x1E6A JUMP JUMPDEST JUMPDEST SWAP3 SWAP2 POP POP JUMP JUMPDEST PUSH1 0x0 DUP2 SWAP1 POP DUP3 PUSH1 0x20 PUSH1 0x1 MUL DUP3 ADD GT ISZERO PUSH2 0x1EAD JUMPI PUSH2 0x1EAC PUSH2 0x1E6A JUMP JUMPDEST JUMPDEST SWAP3 SWAP2 POP POP JUMP JUMPDEST PUSH1 0x0 DUP1 PUSH2 0x120 DUP4 DUP6 SUB SLT ISZERO PUSH2 0x1ECB JUMPI PUSH2 0x1ECA PUSH2 0x1E65 JUMP JUMPDEST JUMPDEST PUSH1 0x0 PUSH2 0x1ED9 DUP6 DUP3 DUP7 ADD PUSH2 0x1E6F JUMP JUMPDEST SWAP3 POP POP PUSH2 0x100 PUSH2 0x1EEB DUP6 DUP3 DUP7 ADD PUSH2 0x1E91 JUMP JUMPDEST SWAP2 POP POP SWAP3 POP SWAP3 SWAP1 POP JUMP JUMPDEST PUSH1 0x0 PUSH2 0x100 DUP3 DUP5 SUB SLT ISZERO PUSH2 0x1F0C JUMPI PUSH2 0x1F0B PUSH2 0x1E65 JUMP JUMPDEST JUMPDEST PUSH1 0x0 PUSH2 0x1F1A DUP5 DUP3 DUP6 ADD PUSH2 0x1E6F JUMP JUMPDEST SWAP2 POP POP SWAP3 SWAP2 POP POP JUMP JUMPDEST PUSH1 0x0 PUSH1 0x4 SWAP1 POP SWAP2 SWAP1 POP JUMP JUMPDEST PUSH1 0x0 DUP2 SWAP1 POP SWAP3 SWAP2 POP POP JUMP JUMPDEST PUSH1 0x0 DUP2 SWAP1 POP SWAP2 SWAP1 POP JUMP JUMPDEST PUSH1 0x0 DUP2 SWAP1 POP SWAP2 SWAP1 POP JUMP JUMPDEST PUSH2 0x1F56 DUP2 PUSH2 0x1F43 JUMP JUMPDEST DUP3 MSTORE POP POP JUMP JUMPDEST PUSH1 0x0 PUSH2 0x1F68 DUP4 DUP4 PUSH2 0x1F4D JUMP JUMPDEST PUSH1 0x20 DUP4 ADD SWAP1 POP SWAP3 SWAP2 POP POP JUMP JUMPDEST PUSH1 0x0 PUSH1 0x20 DUP3 ADD SWAP1 POP SWAP2 SWAP1 POP JUMP JUMPDEST PUSH2 0x1F8A DUP2 PUSH2 0x1F23 JUMP JUMPDEST PUSH2 0x1F94 DUP2 DUP5 PUSH2 0x1F2E JUMP JUMPDEST SWAP3 POP PUSH2 0x1F9F DUP3 PUSH2 0x1F39 JUMP JUMPDEST DUP1 PUSH1 0x0 JUMPDEST DUP4 DUP2 LT ISZERO PUSH2 0x1FD0 JUMPI DUP2 MLOAD PUSH2 0x1FB7 DUP8 DUP3 PUSH2 0x1F5C JUMP JUMPDEST SWAP7 POP PUSH2 0x1FC2 DUP4 PUSH2 0x1F74 JUMP JUMPDEST SWAP3 POP POP PUSH1 0x1 DUP2 ADD SWAP1 POP PUSH2 0x1FA3 JUMP JUMPDEST POP POP POP POP POP POP JUMP JUMPDEST PUSH1 0x0 PUSH1 0x80 DUP3 ADD SWAP1 POP PUSH2 0x1FED PUSH1 0x0 DUP4 ADD DUP5 PUSH2 0x1F81 JUMP JUMPDEST SWAP3 SWAP2 POP POP JUMP JUMPDEST PUSH1 0x0 DUP2 SWAP1 POP DUP3 PUSH1 0x20 PUSH1 0x4 MUL DUP3 ADD GT ISZERO PUSH2 0x200F JUMPI PUSH2 0x200E PUSH2 0x1E6A JUMP JUMPDEST JUMPDEST SWAP3 SWAP2 POP POP JUMP JUMPDEST PUSH1 0x0 DUP1 PUSH1 0xA0 DUP4 DUP6 SUB SLT ISZERO PUSH2 0x202C JUMPI PUSH2 0x202B PUSH2 0x1E65 JUMP JUMPDEST JUMPDEST PUSH1 0x0 PUSH2 0x203A DUP6 DUP3 DUP7 ADD PUSH2 0x1FF3 JUMP JUMPDEST SWAP3 POP POP PUSH1 0x80 PUSH2 0x204B DUP6 DUP3 DUP7 ADD PUSH2 0x1E91 JUMP JUMPDEST SWAP2 POP POP SWAP3 POP SWAP3 SWAP1 POP JUMP JUMPDEST PUSH32 0x4E487B7100000000000000000000000000000000000000000000000000000000 PUSH1 0x0 MSTORE PUSH1 0x32 PUSH1 0x4 MSTORE PUSH1 0x24 PUSH1 0x0 REVERT JUMPDEST PUSH32 0x4E487B7100000000000000000000000000000000000000000000000000000000 PUSH1 0x0 MSTORE PUSH1 0x12 PUSH1 0x4 MSTORE PUSH1 0x24 PUSH1 0x0 REVERT JUMPDEST PUSH32 0x4E487B7100000000000000000000000000000000000000000000000000000000 PUSH1 0x0 MSTORE PUSH1 0x11 PUSH1 0x4 MSTORE PUSH1 0x24 PUSH1 0x0 REVERT JUMPDEST PUSH1 0x0 PUSH2 0x20ED DUP3 PUSH2 0x1F43 JUMP JUMPDEST SWAP2 POP PUSH2 0x20F8 DUP4 PUSH2 0x1F43 JUMP JUMPDEST SWAP3 POP DUP3 DUP3 SUB SWAP1 POP DUP2 DUP2 GT ISZERO PUSH2 0x2110 JUMPI PUSH2 0x210F PUSH2 0x20B3 JUMP JUMPDEST JUMPDEST SWAP3 SWAP2 POP POP JUMP INVALID LOG2 PUSH5 0x6970667358 0x22 SLT KECCAK256 0x23 TSTORE PUSH30 0x2F8806D9F49F7969016DBE7676710A778281017B514CE0613D152207E864 PUSH20 0x6F6C634300081C00330000000000000000000000 "
        },
        "methodIdentifiers": {
          "compressProof(uint256[8])": "44f63692",
          "verifyCompressedProof(uint256[4],uint256[1])": "ce6c832c",
          "verifyProof(uint256[8],uint256[1])": "1b81f829"
        }
      }
    }
  }
}