{
  "contracts/MerkleRootStore.sol": {
    "MerkleRootStore": {
      "abi": [
        {
          "anonymous": false,
          "inputs": [
            {
              "indexed": false,
              "internalType": "bytes32",
              "name": "newMerkleRoot",
              "type": "bytes32"
            }
          ],
          "name": "MerkleRootUpdated",
          "type": "event"
        },
        {
          "inputs": [],
          "name": "getMerkleRoot",
          "outputs": [
            {
              "internalType": "bytes32",
              "name": "",
              "type": "bytes32"
            }
          ],
          "stateMutability": "view",
          "type": "function"
        },
        {
          "inputs": [],
          "name": "merkleRoot",
          "outputs": [
            {
              "internalType": "bytes32",
              "name": "",
              "type": "bytes32"
            }
          ],
          "stateMutability": "view",
          "type": "function"
        },
        {
          "inputs": [
            {
              "internalType": "bytes32",
              "name": "newRoot",
              "type": "bytes32"
            }
          ],
          "name": "updateMerkleRoot",
          "outputs": [],
          "stateMutability": "nonpayable",
          "type": "function"
        },
        {
          "inputs": [
            {
              "internalType": "bytes32[]",
              "name": "proof",
              "type": "bytes32[]"
            },
            {
              "internalType": "bytes32",
              "name": "leaf",
              "type": "bytes32"
            }
          ],
          "name": "verifyMerkleProof",
          "outputs": [
            {
              "internalType": "bool",
              "name": "",
              "type": "bool"
            }
          ],
          "stateMutability": "view",
          "type": "function"
        }
      ],
      "evm": {
        "bytecode": {
          "linkReferences": {},
          "object": "6080604052348015600f57600080fd5b5061044d8061001f6000396000f3fe608060405234801561001057600080fd5b506004361061004c5760003560e01c80632eb4a7ab146100515780634783f0ef1461006f578063495906571461008b5780635f044052146100a9575b600080fd5b6100596100d9565b6040516100669190610222565b60405180910390f35b61008960048036038101906100849190610273565b6100df565b005b610093610120565b6040516100a09190610222565b60405180910390f35b6100c360048036038101906100be9190610305565b610129565b6040516100d09190610380565b60405180910390f35b60005481565b806000819055507f90004c04698bc3322499a575ed3752dd4abf33e0a7294c06a787a0fe01bea941816040516101159190610222565b60405180910390a150565b60008054905090565b60008082905060005b858590508110156101f9578585828181106101505761014f61039b565b5b905060200201358210156101a757818686838181106101725761017161039b565b5b9050602002013560405160200161018a9291906103eb565b6040516020818303038152906040528051906020012091506101ec565b8585828181106101ba576101b961039b565b5b90506020020135826040516020016101d39291906103eb565b6040516020818303038152906040528051906020012091505b8080600101915050610132565b5060005481149150509392505050565b6000819050919050565b61021c81610209565b82525050565b60006020820190506102376000830184610213565b92915050565b600080fd5b600080fd5b61025081610209565b811461025b57600080fd5b50565b60008135905061026d81610247565b92915050565b6000602082840312156102895761028861023d565b5b60006102978482850161025e565b91505092915050565b600080fd5b600080fd5b600080fd5b60008083601f8401126102c5576102c46102a0565b5b8235905067ffffffffffffffff8111156102e2576102e16102a5565b5b6020830191508360208202830111156102fe576102fd6102aa565b5b9250929050565b60008060006040848603121561031e5761031d61023d565b5b600084013567ffffffffffffffff81111561033c5761033b610242565b5b610348868287016102af565b9350935050602061035b8682870161025e565b9150509250925092565b60008115159050919050565b61037a81610365565b82525050565b60006020820190506103956000830184610371565b92915050565b7f4e487b7100000000000000000000000000000000000000000000000000000000600052603260045260246000fd5b6000819050919050565b6103e56103e082610209565b6103ca565b82525050565b60006103f782856103d4565b60208201915061040782846103d4565b602082019150819050939250505056fea2646970667358221220cf93cbf6275474e511f8fe3b03be9f8c0e3e4722f8f7bb9b8c6c9777afb2016864736f6c634300081c0033",
          "opcodes": "PUSH1 0x80 PUSH1 0x40 MSTORE CALLVALUE DUP1 ISZERO PUSH1 0xF JUMPI PUSH1 0x0 DUP1 REVERT JUMPDEST POP PUSH2 0x44D DUP1 PUSH2 0x1F PUSH1 0x0 CODECOPY PUSH1 0x0 RETURN INVALID PUSH1 0x80 PUSH1 0x40 MSTORE CALLVALUE DUP1 ISZERO PUSH2 0x10 JUMPI PUSH1 0x0 DUP1 REVERT JUMPDEST POP PUSH1 0x4 CALLDATASIZE LT PUSH2 0x4C JUMPI PUSH1 0x0 CALLDATALOAD PUSH1 0xE0 SHR DUP1 PUSH4 0x2EB4A7AB EQ PUSH2 0x51 JUMPI DUP1 PUSH4 0x4783F0EF EQ PUSH2 0x6F JUMPI DUP1 PUSH4 0x49590657 EQ PUSH2 0x8B JUMPI DUP1 PUSH4 0x5F044052 EQ PUSH2 0xA9 JUMPI JUMPDEST PUSH1 0x0 DUP1 REVERT JUMPDEST PUSH2 0x59 PUSH2 0xD9 JUMP JUMPDEST PUSH1 0x40 MLOAD PUSH2 0x66 SWAP2 SWAP1 PUSH2 0x222 JUMP JUMPDEST PUSH1 0x40 MLOAD DUP1 SWAP2 SUB SWAP1 RETURN JUMPDEST PUSH2 0x89 PUSH1 0x4 DUP1 CALLDATASIZE SUB DUP2 ADD SWAP1 PUSH2 0x84 SWAP2 SWAP1 PUSH2 0x273 JUMP JUMPDEST PUSH2 0xDF JUMP JUMPDEST STOP JUMPDEST PUSH2 0x93 PUSH2 0x120 JUMP JUMPDEST PUSH1 0x40 MLOAD PUSH2 0xA0 SWAP2 SWAP1 PUSH2 0x222 JUMP JUMPDEST PUSH1 0x40 MLOAD DUP1 SWAP2 SUB SWAP1 RETURN JUMPDEST PUSH2 0xC3 PUSH1 0x4 DUP1 CALLDATASIZE SUB DUP2 ADD SWAP1 PUSH2 0xBE SWAP2 SWAP1 PUSH2 0x305 JUMP JUMPDEST PUSH2 0x129 JUMP JUMPDEST PUSH1 0x40 MLOAD PUSH2 0xD0 SWAP2 SWAP1 PUSH2 0x380 JUMP JUMPDEST PUSH1 0x40 MLOAD DUP1 SWAP2 SUB SWAP1 RETURN JUMPDEST PUSH1 0x0 SLOAD DUP2 JUMP JUMPDEST DUP1 PUSH1 0x0 DUP2 SWAP1 SSTORE POP PUSH32 0x90004C04698BC3322499A575ED3752DD4ABF33E0A7294C06A787A0FE01BEA941 DUP2 PUSH1 0x40 MLOAD PUSH2 0x115 SWAP2 SWAP1 PUSH2 0x222 JUMP JUMPDEST PUSH1 0x40 MLOAD DUP1 SWAP2 SUB SWAP1 LOG1 POP JUMP JUMPDEST PUSH1 0x0 DUP1 SLOAD SWAP1 POP SWAP1 JUMP JUMPDEST PUSH1 0x0 DUP1 DUP3 SWAP1 POP PUSH1 0x0 JUMPDEST DUP6 DUP6 SWAP1 POP DUP2 LT ISZERO PUSH2 0x1F9 JUMPI DUP6 DUP6 DUP3 DUP2 DUP2 LT PUSH2 0x150 JUMPI PUSH2 0x14F PUSH2 0x39B JUMP JUMPDEST JUMPDEST SWAP1 POP PUSH1 0x20 MUL ADD CALLDATALOAD DUP3 LT ISZERO PUSH2 0x1A7 JUMPI DUP2 DUP7 DUP7 DUP4 DUP2 DUP2 LT PUSH2 0x172 JUMPI PUSH2 0x171 PUSH2 0x39B JUMP JUMPDEST JUMPDEST SWAP1 POP PUSH1 0x20 MUL ADD CALLDATALOAD PUSH1 0x40 MLOAD PUSH1 0x20 ADD PUSH2 0x18A SWAP3 SWAP2 SWAP1 PUSH2 0x3EB JUMP JUMPDEST PUSH1 0x40 MLOAD PUSH1 0x20 DUP2 DUP4 SUB SUB DUP2 MSTORE SWAP1 PUSH1 0x40 MSTORE DUP1 MLOAD SWAP1 PUSH1 0x20 ADD KECCAK256 SWAP2 POP PUSH2 0x1EC JUMP JUMPDEST DUP6 DUP6 DUP3 DUP2 DUP2 LT PUSH2 0x1BA JUMPI PUSH2 0x1B9 PUSH2 0x39B JUMP JUMPDEST JUMPDEST SWAP1 POP PUSH1 0x20 MUL ADD CALLDATALOAD DUP3 PUSH1 0x40 MLOAD PUSH1 0x20 ADD PUSH2 0x1D3 SWAP3 SWAP2 SWAP1 PUSH2 0x3EB JUMP JUMPDEST PUSH1 0x40 MLOAD PUSH1 0x20 DUP2 DUP4 SUB SUB DUP2 MSTORE SWAP1 PUSH1 0x40 MSTORE DUP1 MLOAD SWAP1 PUSH1 0x20 ADD KECCAK256 SWAP2 POP JUMPDEST DUP1 DUP1 PUSH1 0x1 ADD SWAP2 POP POP PUSH2 0x132 JUMP JUMPDEST POP PUSH1 0x0 SLOAD DUP2 EQ SWAP2 POP POP SWAP4 SWAP3 POP POP POP JUMP JUMPDEST PUSH1 0x0 DUP2 SWAP1 POP SWAP2 SWAP1 POP JUMP JUMPDEST PUSH2 0x21C DUP2 PUSH2 0x209 JUMP JUMPDEST DUP3 MSTORE POP POP JUMP JUMPDEST PUSH1 0x0 PUSH1 0x20 DUP3 ADD SWAP1 POP PUSH2 0x237 PUSH1 0x0 DUP4 ADD DUP5 PUSH2 0x213 JUMP JUMPDEST SWAP3 SWAP2 POP POP JUMP JUMPDEST PUSH1 0x0 DUP1 REVERT JUMPDEST PUSH1 0x0 DUP1 REVERT JUMPDEST PUSH2 0x250 DUP2 PUSH2 0x209 JUMP JUMPDEST DUP2 EQ PUSH2 0x25B JUMPI PUSH1 0x0 DUP1 REVERT JUMPDEST POP JUMP JUMPDEST PUSH1 0x0 DUP2 CALLDATALOAD SWAP1 POP PUSH2 0x26D DUP2 PUSH2 0x247 JUMP JUMPDEST SWAP3 SWAP2 POP POP JUMP JUMPDEST PUSH1 0x0 PUSH1 0x20 DUP3 DUP5 SUB SLT ISZERO PUSH2 0x289 JUMPI PUSH2 0x288 PUSH2 0x23D JUMP JUMPDEST JUMPDEST PUSH1 0x0 PUSH2 0x297 DUP5 DUP3 DUP6 ADD PUSH2 0x25E JUMP JUMPDEST SWAP2 POP POP SWAP3 SWAP2 POP POP JUMP JUMPDEST PUSH1 0x0 DUP1 REVERT JUMPDEST PUSH1 0x0 DUP1 REVERT JUMPDEST PUSH1 0x0 DUP1 REVERT JUMPDEST PUSH1 0x0 DUP1 DUP4 PUSH1 0x1F DUP5 ADD SLT PUSH2 0x2C5 JUMPI PUSH2 0x2C4 PUSH2 0x2A0 JUMP JUMPDEST JUMPDEST DUP3 CALLDATALOAD SWAP1 POP PUSH8 0xFFFFFFFFFFFFFFFF DUP2 GT ISZERO PUSH2 0x2E2 JUMPI PUSH2 0x2E1 PUSH2 0x2A5 JUMP JUMPDEST JUMPDEST PUSH1 0x20 DUP4 ADD SWAP2 POP DUP4 PUSH1 0x20 DUP3 MUL DUP4 ADD GT ISZERO PUSH2 0x2FE JUMPI PUSH2 0x2FD PUSH2 0x2AA JUMP JUMPDEST JUMPDEST SWAP3 POP SWAP3 SWAP1 POP JUMP JUMPDEST PUSH1 0x0 DUP1 PUSH1 0x0 PUSH1 0x40 DUP5 DUP7 SUB SLT ISZERO PUSH2 0x31E JUMPI PUSH2 0x31D PUSH2 0x23D JUMP JUMPDEST JUMPDEST PUSH1 0x0 DUP5 ADD CALLDATALOAD PUSH8 0xFFFFFFFFFFFFFFFF DUP2 GT ISZERO PUSH2 0x33C JUMPI PUSH2 0x33B PUSH2 0x242 JUMP JUMPDEST JUMPDEST PUSH2 0x348 DUP7 DUP3 DUP8 ADD PUSH2 0x2AF JUMP JUMPDEST SWAP4 POP SWAP4 POP POP PUSH1 0x20 PUSH2 0x35B DUP7 DUP3 DUP8 ADD PUSH2 0x25E JUMP JUMPDEST SWAP2 POP POP SWAP3 POP SWAP3 POP SWAP3 JUMP JUMPDEST PUSH1 0x0 DUP2 ISZERO ISZERO SWAP1 POP SWAP2 SWAP1 POP JUMP JUMPDEST PUSH2 0x37A DUP2 PUSH2 0x365 JUMP JUMPDEST DUP3 MSTORE POP POP JUMP JUMPDEST PUSH1 0x0 PUSH1 0x20 DUP3 ADD SWAP1 POP PUSH2 0x395 PUSH1 0x0 DUP4 ADD DUP5 PUSH2 0x371 JUMP JUMPDEST SWAP3 SWAP2 POP POP JUMP JUMPDEST PUSH32 0x4E487B7100000000000000000000000000000000000000000000000000000000 PUSH1 0x0 MSTORE PUSH1 0x32 PUSH1 0x4 MSTORE PUSH1 0x24 PUSH1 0x0 REVERT JUMPDEST PUSH1 0x0 DUP2 SWAP1 POP SWAP2 SWAP1 POP JUMP JUMPDEST PUSH2 0x3E5 PUSH2 0x3E0 DUP3 PUSH2 0x209 JUMP JUMPDEST PUSH2 0x3CA JUMP JUMPDEST DUP3 MSTORE POP POP JUMP JUMPDEST PUSH1 0x0 PUSH2 0x3F7 DUP3 DUP6 PUSH2 0x3D4 JUMP JUMPDEST PUSH1 0x20 DUP3 ADD SWAP2 POP PUSH2 0x407 DUP3 DUP5 PUSH2 0x3D4 JUMP JUMPDEST PUSH1 0x20 DUP3 ADD SWAP2 POP DUP2 SWAP1 POP SWAP4 SWAP3 POP POP POP JUMP INVALID LOG2 PUSH5 0x6970667358 0x22 SLT KECCAK256 0xCF SWAP4 0xCB 0xF6 0x27 SLOAD PUSH21 0xE511F8FE3B03BE9F8C0E3E4722F8F7BB9B8C6C9777 0xAF 0xB2 ADD PUSH9 0x64736F6C634300081C STOP CALLER "
        },
        "methodIdentifiers": {
          "getMerkleRoot()": "49590657",
          "merkleRoot()": "2eb4a7ab",
          "updateMerkleRoot(bytes32)": "4783f0ef",
          "verifyMerkleProof(bytes32[],bytes32)": "5f044052"
        }
      }
    }
  }
}