{
  "_format": "hh-sol-artifact-1",
  "contractName": "Verifier",
  "sourceName": "contracts/Verifier.sol",
  "abi": [
    {
      "inputs": [],
      "name": "ProofInvalid",
      "type": "error"
    },
    {
      "inputs": [],
      "name": "PublicInputNotInField",
      "type": "error"
    },
    {
      "inputs": [
        {
          "internalType": "uint256[8]",
          "name": "proof",
          "type": "uint256[8]"
        }
      ],
      "name": "compressProof",
      "outputs": [
        {
          "internalType": "uint256[4]",
          "name": "compressed",
          "type": "uint256[4]"
        }
      ],
      "stateMutability": "view",
      "type": "function"
    },
    {
      "inputs": [
        {
          "internalType": "uint256[4]",
          "name": "compressedProof",
          "type": "uint256[4]"
        },
        {
          "internalType": "uint256[1]",
          "name": "input",
          "type": "uint256[1]"
        }
      ],
      "name": "verifyCompressedProof",
      "outputs": [],
      "stateMutability": "view",
      "type": "function"
    },
    {
      "inputs": [
        {
          "internalType": "uint256[8]",
          "name": "proof",
          "type": "uint256[8]"
        },
        {
          "internalType": "uint256[1]",
          "name": "input",
          "type": "uint256[1]"
        }
      ],
      "name": "verifyProof",
      "outputs": [],
      "stateMutability": "view",
      "type": "function"
    }
  ],
  "bytecode": "0x6080604052348015600f57600080fd5b5061214c8061001f6000396000f3fe608060405234801561001057600080fd5b50600436106100415760003560e01c80631b81f8291461004657806344f6369214610062578063ce6c832c14610092575b600080fd5b610060600480360381019061005b9190611eb3565b6100ae565b005b61007c60048036038101906100779190611ef5565b61034b565b6040516100899190611fd8565b60405180910390f35b6100ac60048036038101906100a79190612015565b6104ac565b005b6000806100ba83610a71565b9150915060006040516101008682377f08607ae4963f9bd9db1f09d7b515ceb2d9d64addb86b6ab4b53206d13383347d6101008201527f0f94bb975ffccda01211b2aae13a2b452431f057309831c872ba81bb7793b1136101208201527f143a2199db2763e3f434b016a4337947c10cd66968184fa5d21aaede554de30f6101408201527f0a1bf2d79d5ef74b2d896a72e40098670d0109ae8a85d1caada7ba1647758aef6101608201527f2f25ecd207e485a697d4a11a41714e69373775c61552496f630bf5c83c31812f6101808201527f2ab2bf2bc9c02c5c153bdc59437b23b62ff3e6a6038ed6191df774a1609fce176101a08201527f111cc1648b72aef2dbe818d202d67cb13640b34c67fe9419339c2558a9338a7b6101c08201527f2358c1ba5f851afe005d042166fec1488a2331a42b81bc55a5206923d423053e6101e08201527f2696565389284c9b0011870cf97ec64203c56e8384a64aaa0d382371274eb6546102008201527f0122958658ad782898f36357c93742318cbf6d70ee957e9d7b8ab71683524dfc61022082015283610240820152826102608201527f04ab225b008d229abec332c6e25492ff3d0a3c71619878351752f509a44e81736102808201527f0a911ace0c2806ba88062845f9e97efea54a998e03080d0b03c2b5488d14b0096102a08201527f0a25da61328070c7175783b2a099e957e9976b1d8fe369f8e39a69752dabdaab6102c08201527f1ee782c177384234f8f49593f9fa2c02669fc8cf4e9452b88810e1d5f487ad726102e08201526020816103008360085afa91508051821691505080610344576040517f7fcdd1f400000000000000000000000000000000000000000000000000000000815260040160405180910390fd5b5050505050565b610353611dfe565b61038d8260006008811061036a57610369612055565b5b60200201358360016008811061038357610382612055565b5b6020020135610bad565b816000600481106103a1576103a0612055565b5b602002018181525050610416826003600881106103c1576103c0612055565b5b6020020135836002600881106103da576103d9612055565b5b6020020135846005600881106103f3576103f2612055565b5b60200201358560046008811061040c5761040b612055565b5b6020020135610d61565b8260026004811061042a57610429612055565b5b602002018360016004811061044257610441612055565b5b602002018281525082815250505061048a8260066008811061046757610466612055565b5b6020020135836007600881106104805761047f612055565b5b6020020135610bad565b8160036004811061049e5761049d612055565b5b602002018181525050919050565b6104b4611e20565b6000806104d8856000600481106104ce576104cd612055565b5b6020020135611338565b9150915060008060008061051c896002600481106104f9576104f8612055565b5b60200201358a60016004811061051257610511612055565b5b6020020135611471565b93509350935093506000806105488b60036004811061053e5761053d612055565b5b6020020135611338565b915091506000806105588c610a71565b91509150898b60006018811061057157610570612055565b5b602002018181525050888b60016018811061058f5761058e612055565b5b602002018181525050868b6002601881106105ad576105ac612055565b5b602002018181525050878b6003601881106105cb576105ca612055565b5b602002018181525050848b6004601881106105e9576105e8612055565b5b602002018181525050858b60056018811061060757610606612055565b5b602002018181525050838b60066018811061062557610624612055565b5b602002018181525050828b60076018811061064357610642612055565b5b6020020181815250507f08607ae4963f9bd9db1f09d7b515ceb2d9d64addb86b6ab4b53206d13383347d8b60086018811061068157610680612055565b5b6020020181815250507f0f94bb975ffccda01211b2aae13a2b452431f057309831c872ba81bb7793b1138b6009601881106106bf576106be612055565b5b6020020181815250507f143a2199db2763e3f434b016a4337947c10cd66968184fa5d21aaede554de30f8b600a601881106106fd576106fc612055565b5b6020020181815250507f0a1bf2d79d5ef74b2d896a72e40098670d0109ae8a85d1caada7ba1647758aef8b600b6018811061073b5761073a612055565b5b6020020181815250507f2f25ecd207e485a697d4a11a41714e69373775c61552496f630bf5c83c31812f8b600c6018811061077957610778612055565b5b6020020181815250507f2ab2bf2bc9c02c5c153bdc59437b23b62ff3e6a6038ed6191df774a1609fce178b600d601881106107b7576107b6612055565b5b6020020181815250507f111cc1648b72aef2dbe818d202d67cb13640b34c67fe9419339c2558a9338a7b8b600e601881106107f5576107f4612055565b5b6020020181815250507f2358c1ba5f851afe005d042166fec1488a2331a42b81bc55a5206923d423053e8b600f6018811061083357610832612055565b5b6020020181815250507f2696565389284c9b0011870cf97ec64203c56e8384a64aaa0d382371274eb6548b60106018811061087157610870612055565b5b6020020181815250507f0122958658ad782898f36357c93742318cbf6d70ee957e9d7b8ab71683524dfc8b6011601881106108af576108ae612055565b5b602002018181525050818b6012601881106108cd576108cc612055565b5b602002018181525050808b6013601881106108eb576108ea612055565b5b6020020181815250507f04ab225b008d229abec332c6e25492ff3d0a3c71619878351752f509a44e81738b60146018811061092957610928612055565b5b6020020181815250507f0a911ace0c2806ba88062845f9e97efea54a998e03080d0b03c2b5488d14b0098b60156018811061096757610966612055565b5b6020020181815250507f0a25da61328070c7175783b2a099e957e9976b1d8fe369f8e39a69752dabdaab8b6016601881106109a5576109a4612055565b5b6020020181815250507f1ee782c177384234f8f49593f9fa2c02669fc8cf4e9452b88810e1d5f487ad728b6017601881106109e3576109e2612055565b5b60200201818152505060006109f6611e43565b6020816103008f60085afa9150811580610a295750600181600060018110610a2157610a20612055565b5b602002015114155b15610a60576040517f7fcdd1f400000000000000000000000000000000000000000000000000000000815260040160405180910390fd5b505050505050505050505050505050565b6000806000600190506040516040810160007f24542eed5990d7538bc5b8e2ab4f3fa8babf6d4afb89c46341a6eafe1b94089b83527f071e0e57f94dc6a6a948fd9e8da8568fe0e7cf3c8ac22d655e08556da7c05e5b60208401527f2c9ee6d0c29d4045770ef52168b782f3532967ddbed8bd8616949a3cea42882f82527f2c8b592d58f2d8b5e21b4b9424502f1256263079e7ec2974ed5d1a7494f713aa6020830152863590508060408301527f30644e72e131a029b85045b68181585d2833e84879b9709143e1f593f000000181108416935060408260608460075afa8416935060408360808560065afa84169350825195506020830151945050505080610ba7576040517fa54f8e2700000000000000000000000000000000000000000000000000000000815260040160405180910390fd5b50915091565b60007f30644e72e131a029b85045b68181585d97816a916871ca8d3c208c16d87cfd4783101580610bfe57507f30644e72e131a029b85045b68181585d97816a916871ca8d3c208c16d87cfd478210155b15610c35576040517f7fcdd1f400000000000000000000000000000000000000000000000000000000815260040160405180910390fd5b600083148015610c455750600082145b15610c535760009050610d5b565b6000610cf27f30644e72e131a029b85045b68181585d97816a916871ca8d3c208c16d87cfd4780610c8757610c86612084565b5b60037f30644e72e131a029b85045b68181585d97816a916871ca8d3c208c16d87cfd4780610cb857610cb7612084565b5b877f30644e72e131a029b85045b68181585d97816a916871ca8d3c208c16d87cfd4780610ce857610ce7612084565b5b898a090908611857565b9050808303610d0b576000600185901b17915050610d5b565b610d14816118f4565b8303610d295760018085901b17915050610d5b565b6040517f7fcdd1f400000000000000000000000000000000000000000000000000000000815260040160405180910390fd5b92915050565b6000807f30644e72e131a029b85045b68181585d97816a916871ca8d3c208c16d87cfd4786101580610db357507f30644e72e131a029b85045b68181585d97816a916871ca8d3c208c16d87cfd478510155b80610dde57507f30644e72e131a029b85045b68181585d97816a916871ca8d3c208c16d87cfd478410155b80610e0957507f30644e72e131a029b85045b68181585d97816a916871ca8d3c208c16d87cfd478310155b15610e40576040517f7fcdd1f400000000000000000000000000000000000000000000000000000000815260040160405180910390fd5b60008385878917171703610e5a576000809150915061132f565b60008060007f30644e72e131a029b85045b68181585d97816a916871ca8d3c208c16d87cfd4780610e8e57610e8d612084565b5b60037f30644e72e131a029b85045b68181585d97816a916871ca8d3c208c16d87cfd47610ebb91906120e2565b7f30644e72e131a029b85045b68181585d97816a916871ca8d3c208c16d87cfd4780610eea57610ee9612084565b5b8a8c0909905060007f30644e72e131a029b85045b68181585d97816a916871ca8d3c208c16d87cfd4780610f2157610f20612084565b5b8a7f30644e72e131a029b85045b68181585d97816a916871ca8d3c208c16d87cfd4780610f5157610f50612084565b5b8c8d0909905060007f30644e72e131a029b85045b68181585d97816a916871ca8d3c208c16d87cfd4780610f8857610f87612084565b5b8a7f30644e72e131a029b85045b68181585d97816a916871ca8d3c208c16d87cfd4780610fb857610fb7612084565b5b8c8d090990507f30644e72e131a029b85045b68181585d97816a916871ca8d3c208c16d87cfd4780610fed57610fec612084565b5b7f30644e72e131a029b85045b68181585d97816a916871ca8d3c208c16d87cfd478061101c5761101b612084565b5b7f30644e72e131a029b85045b68181585d97816a916871ca8d3c208c16d87cfd478061104b5761104a612084565b5b8c860984087f2b149d40ceb8aaae81be18991be06ac3b5b4c5e559dbefa33267e6dc24a138e50894506111307f30644e72e131a029b85045b68181585d97816a916871ca8d3c208c16d87cfd47806110a6576110a5612084565b5b7f30644e72e131a029b85045b68181585d97816a916871ca8d3c208c16d87cfd47806110d5576110d4612084565b5b7f30644e72e131a029b85045b68181585d97816a916871ca8d3c208c16d87cfd478061110457611103612084565b5b8e870984087f2fcd3ac2a640a154eb23960892a85a68f031ca0c8344b23a577dcf1052b9e775086118f4565b93505050506000806111d47f30644e72e131a029b85045b68181585d97816a916871ca8d3c208c16d87cfd478061116a57611169612084565b5b7f30644e72e131a029b85045b68181585d97816a916871ca8d3c208c16d87cfd478061119957611198612084565b5b8586097f30644e72e131a029b85045b68181585d97816a916871ca8d3c208c16d87cfd47806111cb576111ca612084565b5b87880908611857565b90506112617f30644e72e131a029b85045b68181585d97816a916871ca8d3c208c16d87cfd478061120857611207612084565b5b7f183227397098d014dc2822db40c0ac2ecbc0b548b438e5469e10460b6c3e7ea47f30644e72e131a029b85045b68181585d97816a916871ca8d3c208c16d87cfd478061125857611257612084565b5b84880809611960565b159150506112708383836119cb565b8093508194505050828714801561128657508186145b156112b05760008161129957600061129c565b60025b60ff1660028b901b1717945087935061132b565b6112b9836118f4565b871480156112ce57506112cb826118f4565b86145b156112f8576001816112e15760006112e4565b60025b60ff1660028b901b1717945087935061132a565b6040517f7fcdd1f400000000000000000000000000000000000000000000000000000000815260040160405180910390fd5b5b5050505b94509492505050565b6000806000830361134f576000809150915061146c565b60006001808516149050600184901c92507f30644e72e131a029b85045b68181585d97816a916871ca8d3c208c16d87cfd4783106113b9576040517f7fcdd1f400000000000000000000000000000000000000000000000000000000815260040160405180910390fd5b6114567f30644e72e131a029b85045b68181585d97816a916871ca8d3c208c16d87cfd47806113eb576113ea612084565b5b60037f30644e72e131a029b85045b68181585d97816a916871ca8d3c208c16d87cfd478061141c5761141b612084565b5b867f30644e72e131a029b85045b68181585d97816a916871ca8d3c208c16d87cfd478061144c5761144b612084565b5b8889090908611857565b9150801561146a57611467826118f4565b91505b505b915091565b6000806000806000861480156114875750600085145b1561149f57600080600080935093509350935061184e565b6000600180881614905060006002808916149050600288901c95508694507f30644e72e131a029b85045b68181585d97816a916871ca8d3c208c16d87cfd478610158061150c57507f30644e72e131a029b85045b68181585d97816a916871ca8d3c208c16d87cfd478510155b15611543576040517f7fcdd1f400000000000000000000000000000000000000000000000000000000815260040160405180910390fd5b60007f30644e72e131a029b85045b68181585d97816a916871ca8d3c208c16d87cfd478061157457611573612084565b5b60037f30644e72e131a029b85045b68181585d97816a916871ca8d3c208c16d87cfd476115a191906120e2565b7f30644e72e131a029b85045b68181585d97816a916871ca8d3c208c16d87cfd47806115d0576115cf612084565b5b888a0909905060007f30644e72e131a029b85045b68181585d97816a916871ca8d3c208c16d87cfd478061160757611606612084565b5b887f30644e72e131a029b85045b68181585d97816a916871ca8d3c208c16d87cfd478061163757611636612084565b5b8a8b0909905060007f30644e72e131a029b85045b68181585d97816a916871ca8d3c208c16d87cfd478061166e5761166d612084565b5b887f30644e72e131a029b85045b68181585d97816a916871ca8d3c208c16d87cfd478061169e5761169d612084565b5b8a8b090990507f30644e72e131a029b85045b68181585d97816a916871ca8d3c208c16d87cfd47806116d3576116d2612084565b5b7f30644e72e131a029b85045b68181585d97816a916871ca8d3c208c16d87cfd478061170257611701612084565b5b7f30644e72e131a029b85045b68181585d97816a916871ca8d3c208c16d87cfd478061173157611730612084565b5b8a860984087f2b149d40ceb8aaae81be18991be06ac3b5b4c5e559dbefa33267e6dc24a138e50896506118167f30644e72e131a029b85045b68181585d97816a916871ca8d3c208c16d87cfd478061178c5761178b612084565b5b7f30644e72e131a029b85045b68181585d97816a916871ca8d3c208c16d87cfd47806117bb576117ba612084565b5b7f30644e72e131a029b85045b68181585d97816a916871ca8d3c208c16d87cfd47806117ea576117e9612084565b5b8c870984087f2fcd3ac2a640a154eb23960892a85a68f031ca0c8344b23a577dcf1052b9e775086118f4565b95506118238787866119cb565b809750819850505084156118485761183a876118f4565b9650611845866118f4565b95505b50505050505b92959194509250565b6000611883827f0c19139cb84c680a6e14116da060561765e05aa45a1c72a34f082305b61f3f52611cc8565b9050817f30644e72e131a029b85045b68181585d97816a916871ca8d3c208c16d87cfd47806118b5576118b4612084565b5b828309146118ef576040517f7fcdd1f400000000000000000000000000000000000000000000000000000000815260040160405180910390fd5b919050565b60007f30644e72e131a029b85045b68181585d97816a916871ca8d3c208c16d87cfd4780838161192757611926612084565b5b067f30644e72e131a029b85045b68181585d97816a916871ca8d3c208c16d87cfd47038161195857611957612084565b5b069050919050565b60008061198d837f0c19139cb84c680a6e14116da060561765e05aa45a1c72a34f082305b61f3f52611cc8565b9050827f30644e72e131a029b85045b68181585d97816a916871ca8d3c208c16d87cfd47806119bf576119be612084565b5b82830914915050919050565b6000806000611a6c7f30644e72e131a029b85045b68181585d97816a916871ca8d3c208c16d87cfd4780611a0257611a01612084565b5b7f30644e72e131a029b85045b68181585d97816a916871ca8d3c208c16d87cfd4780611a3157611a30612084565b5b8788097f30644e72e131a029b85045b68181585d97816a916871ca8d3c208c16d87cfd4780611a6357611a62612084565b5b898a0908611857565b90508315611a8057611a7d816118f4565b90505b611b0b7f30644e72e131a029b85045b68181585d97816a916871ca8d3c208c16d87cfd4780611ab257611ab1612084565b5b7f183227397098d014dc2822db40c0ac2ecbc0b548b438e5469e10460b6c3e7ea47f30644e72e131a029b85045b68181585d97816a916871ca8d3c208c16d87cfd4780611b0257611b01612084565b5b848a0809611857565b92507f30644e72e131a029b85045b68181585d97816a916871ca8d3c208c16d87cfd4780611b3c57611b3b612084565b5b611b777f30644e72e131a029b85045b68181585d97816a916871ca8d3c208c16d87cfd4780611b6e57611b6d612084565b5b60028609611d60565b860991507f30644e72e131a029b85045b68181585d97816a916871ca8d3c208c16d87cfd4780611baa57611ba9612084565b5b611be47f30644e72e131a029b85045b68181585d97816a916871ca8d3c208c16d87cfd4780611bdc57611bdb612084565b5b8485096118f4565b7f30644e72e131a029b85045b68181585d97816a916871ca8d3c208c16d87cfd4780611c1357611c12612084565b5b8586090886141580611c8857507f30644e72e131a029b85045b68181585d97816a916871ca8d3c208c16d87cfd4780611c4f57611c4e612084565b5b7f30644e72e131a029b85045b68181585d97816a916871ca8d3c208c16d87cfd4780611c7e57611c7d612084565b5b8385096002098514155b15611cbf576040517f7fcdd1f400000000000000000000000000000000000000000000000000000000815260040160405180910390fd5b50935093915050565b60008060405160208152602080820152602060408201528460608201528360808201527f30644e72e131a029b85045b68181585d97816a916871ca8d3c208c16d87cfd4760a082015260208160c08360055afa9150805192505080611d59576040517f7fcdd1f400000000000000000000000000000000000000000000000000000000815260040160405180910390fd5b5092915050565b6000611d8c827f30644e72e131a029b85045b68181585d97816a916871ca8d3c208c16d87cfd45611cc8565b905060017f30644e72e131a029b85045b68181585d97816a916871ca8d3c208c16d87cfd4780611dbf57611dbe612084565b5b82840914611df9576040517f7fcdd1f400000000000000000000000000000000000000000000000000000000815260040160405180910390fd5b919050565b6040518060800160405280600490602082028036833780820191505090505090565b604051806103000160405280601890602082028036833780820191505090505090565b6040518060200160405280600190602082028036833780820191505090505090565b600080fd5b600080fd5b600081905082602060080282011115611e8b57611e8a611e6a565b5b92915050565b600081905082602060010282011115611ead57611eac611e6a565b5b92915050565b6000806101208385031215611ecb57611eca611e65565b5b6000611ed985828601611e6f565b925050610100611eeb85828601611e91565b9150509250929050565b60006101008284031215611f0c57611f0b611e65565b5b6000611f1a84828501611e6f565b91505092915050565b600060049050919050565b600081905092915050565b6000819050919050565b6000819050919050565b611f5681611f43565b82525050565b6000611f688383611f4d565b60208301905092915050565b6000602082019050919050565b611f8a81611f23565b611f948184611f2e565b9250611f9f82611f39565b8060005b83811015611fd0578151611fb78782611f5c565b9650611fc283611f74565b925050600181019050611fa3565b505050505050565b6000608082019050611fed6000830184611f81565b92915050565b60008190508260206004028201111561200f5761200e611e6a565b5b92915050565b60008060a0838503121561202c5761202b611e65565b5b600061203a85828601611ff3565b925050608061204b85828601611e91565b9150509250929050565b7f4e487b7100000000000000000000000000000000000000000000000000000000600052603260045260246000fd5b7f4e487b7100000000000000000000000000000000000000000000000000000000600052601260045260246000fd5b7f4e487b7100000000000000000000000000000000000000000000000000000000600052601160045260246000fd5b60006120ed82611f43565b91506120f883611f43565b92508282039050818111156121105761210f6120b3565b5b9291505056fea2646970667358221220235d7d2f8806d9f49f7969016dbe7676710a778281017b514ce0613d152207e864736f6c634300081c0033",
  "linkReferences": {},
  "deployedLinkReferences": {}
}